{
  "contractName": "BettingFactory",
  "abi": [
    {
      "constant": true,
      "inputs": [
        {
          "name": "",
          "type": "uint256"
        }
      ],
      "name": "bets",
      "outputs": [
        {
          "name": "",
          "type": "address"
        }
      ],
      "payable": false,
      "stateMutability": "view",
      "type": "function",
      "signature": "0x22af00fa"
    },
    {
      "constant": false,
      "inputs": [
        {
          "name": "_value",
          "type": "uint256"
        },
        {
          "name": "_maxParticipators",
          "type": "uint256"
        },
        {
          "name": "_open",
          "type": "bool"
        },
        {
          "name": "_friendsOnly",
          "type": "bool"
        },
        {
          "name": "_betLength",
          "type": "uint256"
        }
      ],
      "name": "createPuzzleBet",
      "outputs": [
        {
          "name": "",
          "type": "address"
        }
      ],
      "payable": false,
      "stateMutability": "nonpayable",
      "type": "function",
      "signature": "0xdf455112"
    },
    {
      "constant": true,
      "inputs": [
        {
          "name": "ownerAddress",
          "type": "address"
        }
      ],
      "name": "getOwnedBets",
      "outputs": [
        {
          "name": "",
          "type": "address[]"
        }
      ],
      "payable": false,
      "stateMutability": "view",
      "type": "function",
      "signature": "0xffc3dd29"
    }
  ],
  "bytecode": "0x608060405234801561001057600080fd5b50612b87806100206000396000f3fe608060405260043610610057576000357c0100000000000000000000000000000000000000000000000000000000900463ffffffff16806322af00fa1461005c578063df455112146100d7578063ffc3dd291461017e575b600080fd5b34801561006857600080fd5b506100956004803603602081101561007f57600080fd5b8101908080359060200190929190505050610224565b604051808273ffffffffffffffffffffffffffffffffffffffff1673ffffffffffffffffffffffffffffffffffffffff16815260200191505060405180910390f35b3480156100e357600080fd5b5061013c600480360360a08110156100fa57600080fd5b81019080803590602001909291908035906020019092919080351515906020019092919080351515906020019092919080359060200190929190505050610262565b604051808273ffffffffffffffffffffffffffffffffffffffff1673ffffffffffffffffffffffffffffffffffffffff16815260200191505060405180910390f35b34801561018a57600080fd5b506101cd600480360360208110156101a157600080fd5b81019080803573ffffffffffffffffffffffffffffffffffffffff169060200190929190505050610366565b6040518080602001828103825283818151815260200191508051906020019060200280838360005b838110156102105780820151818401526020810190506101f5565b505050509050019250505060405180910390f35b60008181548110151561023357fe5b906000526020600020016000915054906101000a900473ffffffffffffffffffffffffffffffffffffffff1681565b6000803387878787876102736105e5565b808773ffffffffffffffffffffffffffffffffffffffff1673ffffffffffffffffffffffffffffffffffffffff16815260200186815260200185815260200184151515158152602001831515151581526020018281526020019650505050505050604051809103906000f0801580156102f0573d6000803e3d6000fd5b50905060008190806001815401808255809150509060018203906000526020600020016000909192909190916101000a81548173ffffffffffffffffffffffffffffffffffffffff021916908373ffffffffffffffffffffffffffffffffffffffff160217905550508091505095945050505050565b60608060008054905060405190808252806020026020018201604052801561039d5781602001602082028038833980820191505090505b509050600080905060008090505b60008054905081101561052757600080828154811015156103c857fe5b9060005260206000200160009054906101000a900473ffffffffffffffffffffffffffffffffffffffff1690508573ffffffffffffffffffffffffffffffffffffffff168173ffffffffffffffffffffffffffffffffffffffff1663893d20e86040518163ffffffff167c010000000000000000000000000000000000000000000000000000000002815260040160206040518083038186803b15801561046e57600080fd5b505afa158015610482573d6000803e3d6000fd5b505050506040513d602081101561049857600080fd5b810190808051906020019092919050505073ffffffffffffffffffffffffffffffffffffffff161415610519578084848151811015156104d457fe5b9060200190602002019073ffffffffffffffffffffffffffffffffffffffff16908173ffffffffffffffffffffffffffffffffffffffff168152505082806001019350505b5080806001019150506103ab565b506060816040519080825280602002602001820160405280156105595781602001602082028038833980820191505090505b50905060008090505b828110156105d957838181518110151561057857fe5b90602001906020020151828281518110151561059057fe5b9060200190602002019073ffffffffffffffffffffffffffffffffffffffff16908173ffffffffffffffffffffffffffffffffffffffff16815250508080600101915050610562565b50809350505050919050565b604051612566806105f68339019056fe608060405234801561001057600080fd5b5060405160c080612566833981018060405260c081101561003057600080fd5b81019080805190602001909291908051906020019092919080519060200190929190805190602001909291908051906020019092919080519060200190929190505050600081118015610084575060408411155b80156100905750600084115b1515610104576040517f08c379a000000000000000000000000000000000000000000000000000000000815260040180806020018281038252601e8152602001807f4661696c656420746f20737570706c7920636f727265637420696e707574000081525060200191505060405180910390fd5b4260056000018190555085600560020160006101000a81548173ffffffffffffffffffffffffffffffffffffffff021916908373ffffffffffffffffffffffffffffffffffffffff1602179055508460058001819055508360056006018190555082600560070160006101000a81548160ff02191690831515021790555081600560070160016101000a81548160ff0219169083151502179055506000600560070160026101000a81548160ff02191690831515021790555080603c02600560010181905550505050505050612387806101df6000396000f3fe6080604052600436106100e6576000357c0100000000000000000000000000000000000000000000000000000000900463ffffffff1680631300a6d1146100eb5780631e6be9111461011657806327dc297e1461014157806338bbfa501461021357806347535d7b1461037c578063578a2b32146103ab5780636bba01a0146103b5578063893d20e81461047d57806389b5af53146104d45780639d26c6f214610503578063b688a36314610532578063bef4876b1461053c578063df15c37e1461056b578063e6519a35146105d7578063f8a0b69514610602578063fde41e291461066e575b600080fd5b3480156100f757600080fd5b50610100610699565b6040518082815260200191505060405180910390f35b34801561012257600080fd5b5061012b6106bb565b6040518082815260200191505060405180910390f35b34801561014d57600080fd5b506102116004803603604081101561016457600080fd5b81019080803590602001909291908035906020019064010000000081111561018b57600080fd5b82018360208201111561019d57600080fd5b803590602001918460018302840111640100000000831117156101bf57600080fd5b91908080601f016020809104026020016040519081016040528093929190818152602001838380828437600081840152601f19601f8201169050808301925050505050505091929192905050506106da565b005b34801561021f57600080fd5b5061037a6004803603606081101561023657600080fd5b81019080803590602001909291908035906020019064010000000081111561025d57600080fd5b82018360208201111561026f57600080fd5b8035906020019184600183028401116401000000008311171561029157600080fd5b91908080601f016020809104026020016040519081016040528093929190818152602001838380828437600081840152601f19601f820116905080830192505050505050509192919290803590602001906401000000008111156102f457600080fd5b82018360208201111561030657600080fd5b8035906020019184600183028401116401000000008311171561032857600080fd5b91908080601f016020809104026020016040519081016040528093929190818152602001838380828437600081840152601f19601f820116905080830192505050505050509192919290505050610903565b005b34801561038857600080fd5b50610391610908565b604051808215151515815260200191505060405180910390f35b6103b3610922565b005b3480156103c157600080fd5b5061047b600480360360208110156103d857600080fd5b81019080803590602001906401000000008111156103f557600080fd5b82018360208201111561040757600080fd5b8035906020019184600183028401116401000000008311171561042957600080fd5b91908080601f016020809104026020016040519081016040528093929190818152602001838380828437600081840152601f19601f82011690508083019250505050505050919291929050505061097a565b005b34801561048957600080fd5b50610492610b61565b604051808273ffffffffffffffffffffffffffffffffffffffff1673ffffffffffffffffffffffffffffffffffffffff16815260200191505060405180910390f35b3480156104e057600080fd5b506104e9610b8e565b604051808215151515815260200191505060405180910390f35b34801561050f57600080fd5b50610518610c96565b604051808215151515815260200191505060405180910390f35b61053a610ca6565b005b34801561054857600080fd5b50610551610ea8565b604051808215151515815260200191505060405180910390f35b34801561057757600080fd5b50610580610ec2565b6040518080602001828103825283818151815260200191508051906020019060200280838360005b838110156105c35780820151818401526020810190506105a8565b505050509050019250505060405180910390f35b3480156105e357600080fd5b506105ec610fe1565b6040518082815260200191505060405180910390f35b34801561060e57600080fd5b50610617610fee565b6040518080602001828103825283818151815260200191508051906020019060200280838360005b8381101561065a57808201518184015260208101905061063f565b505050509050019250505060405180910390f35b34801561067a57600080fd5b5061068361107f565b6040518082815260200191505060405180910390f35b6000603c6005600101540242600560000154038115156106b557fe5b04905090565b60003073ffffffffffffffffffffffffffffffffffffffff1631905090565b6106e261108b565b73ffffffffffffffffffffffffffffffffffffffff163373ffffffffffffffffffffffffffffffffffffffff1614151561071b57600080fd5b606081905060008090506060602a6040519080825280601f01601f19166020018201604052801561075b5781602001600182028038833980820191505090505b50905060008090505b83518110156108fb577f4000000000000000000000000000000000000000000000000000000000000000848281518110151561079c57fe5b9060200101517f010000000000000000000000000000000000000000000000000000000000000090047f0100000000000000000000000000000000000000000000000000000000000000027effffffffffffffffffffffffffffffffffffffffffffffffffffffffffffff19161480156108215750602a8314806108205750602c83145b5b1561084f57610837610832836113fe565b61171b565b60009250602060405190810160405280600081525091505b838181518110151561085d57fe5b9060200101517f010000000000000000000000000000000000000000000000000000000000000090047f01000000000000000000000000000000000000000000000000000000000000000282828151811015156108b657fe5b9060200101907effffffffffffffffffffffffffffffffffffffffffffffffffffffffffffff1916908160001a90535082806001019350508080600101915050610764565b505050505050565b505050565b6000600560070160009054906101000a900460ff16905090565b6109776005600101546040805190810160405280600381526020017f55524c00000000000000000000000000000000000000000000000000000000008152506020604051908101604052806000815250611787565b50565b606081905060008090506060602a6040519080825280601f01601f1916602001820160405280156109ba5781602001600182028038833980820191505090505b50905060008090505b8351811015610b5a577f400000000000000000000000000000000000000000000000000000000000000084828151811015156109fb57fe5b9060200101517f010000000000000000000000000000000000000000000000000000000000000090047f0100000000000000000000000000000000000000000000000000000000000000027effffffffffffffffffffffffffffffffffffffffffffffffffffffffffffff1916148015610a805750602a831480610a7f5750602c83145b5b15610aae57610a96610a91836113fe565b61171b565b60009250602060405190810160405280600081525091505b8381815181101515610abc57fe5b9060200101517f010000000000000000000000000000000000000000000000000000000000000090047f0100000000000000000000000000000000000000000000000000000000000000028282815181101515610b1557fe5b9060200101907effffffffffffffffffffffffffffffffffffffffffffffffffffffffffffff1916908160001a905350828060010193505080806001019150506109c3565b5050505050565b6000600560020160009054906101000a900473ffffffffffffffffffffffffffffffffffffffff16905090565b6000600560020160009054906101000a900473ffffffffffffffffffffffffffffffffffffffff1673ffffffffffffffffffffffffffffffffffffffff163373ffffffffffffffffffffffffffffffffffffffff16141515610c7e576040517f08c379a00000000000000000000000000000000000000000000000000000000081526004018080602001828103825260228152602001807f4f6e6c79206f776e65722063616e2063616c6c20746869732066756e6374696f81526020017f6e2e00000000000000000000000000000000000000000000000000000000000081525060400191505060405180910390fd5b600560070160019054906101000a900460ff16905090565b6000610ca133611d40565b905090565b670de0b6b3a764000060058001540234141515610d2b576040517f08c379a000000000000000000000000000000000000000000000000000000000815260040180806020018281038252600f8152602001807f52657175697265732045746865722e000000000000000000000000000000000081525060200191505060405180910390fd5b60011515600560070160009054906101000a900460ff161515141515610db9576040517f08c379a000000000000000000000000000000000000000000000000000000000815260040180806020018281038252600f8152602001807f426574206973206e6f74206f70656e000000000000000000000000000000000081525060200191505060405180910390fd5b60001515610dc633611d40565b1515141515610e3d576040517f08c379a00000000000000000000000000000000000000000000000000000000081526004018080602001828103825260208152602001807f557365722068617320616c7265616479206a6f696e656420746869732062657481525060200191505060405180910390fd5b60056003013390806001815401808255809150509060018203906000526020600020016000909192909190916101000a81548173ffffffffffffffffffffffffffffffffffffffff021916908373ffffffffffffffffffffffffffffffffffffffff16021790555050565b6000600560070160029054906101000a900460ff16905090565b606060011515600560070160029054906101000a900460ff161515141515610f52576040517f08c379a00000000000000000000000000000000000000000000000000000000081526004018080602001828103825260188152602001807f4265742068617320616c72656164792066696e6973686564000000000000000081525060200191505060405180910390fd5b6005600401805480602002602001604051908101604052809291908181526020018280548015610fd757602002820191906000526020600020905b8160009054906101000a900473ffffffffffffffffffffffffffffffffffffffff1673ffffffffffffffffffffffffffffffffffffffff1681526020019060010190808311610f8d575b5050505050905090565b6000600560000154905090565b6060600560030180548060200260200160405190810160405280929190818152602001828054801561107557602002820191906000526020600020905b8160009054906101000a900473ffffffffffffffffffffffffffffffffffffffff1673ffffffffffffffffffffffffffffffffffffffff168152602001906001019080831161102b575b5050505050905090565b60006005800154905090565b60008073ffffffffffffffffffffffffffffffffffffffff16600160009054906101000a900473ffffffffffffffffffffffffffffffffffffffff1673ffffffffffffffffffffffffffffffffffffffff16148061111357506000611111600160009054906101000a900473ffffffffffffffffffffffffffffffffffffffff16611dea565b145b15611124576111226000611df5565b505b600160009054906101000a900473ffffffffffffffffffffffffffffffffffffffff1673ffffffffffffffffffffffffffffffffffffffff166338cc48316040518163ffffffff167c0100000000000000000000000000000000000000000000000000000000028152600401602060405180830381600087803b1580156111aa57600080fd5b505af11580156111be573d6000803e3d6000fd5b505050506040513d60208110156111d457600080fd5b810190808051906020019092919050505073ffffffffffffffffffffffffffffffffffffffff166000809054906101000a900473ffffffffffffffffffffffffffffffffffffffff1673ffffffffffffffffffffffffffffffffffffffff1614151561133b57600160009054906101000a900473ffffffffffffffffffffffffffffffffffffffff1673ffffffffffffffffffffffffffffffffffffffff166338cc48316040518163ffffffff167c0100000000000000000000000000000000000000000000000000000000028152600401602060405180830381600087803b1580156112c057600080fd5b505af11580156112d4573d6000803e3d6000fd5b505050506040513d60208110156112ea57600080fd5b81019080805190602001909291905050506000806101000a81548173ffffffffffffffffffffffffffffffffffffffff021916908373ffffffffffffffffffffffffffffffffffffffff1602179055505b6000809054906101000a900473ffffffffffffffffffffffffffffffffffffffff1673ffffffffffffffffffffffffffffffffffffffff1663c281d19e6040518163ffffffff167c010000000000000000000000000000000000000000000000000000000002815260040160206040518083038186803b1580156113be57600080fd5b505afa1580156113d2573d6000803e3d6000fd5b505050506040513d60208110156113e857600080fd5b8101908080519060200190929190505050905090565b6000606082905060008090506000806000600290505b602a81101561170e5761010084029350848181518110151561143257fe5b9060200101517f010000000000000000000000000000000000000000000000000000000000000090047f0100000000000000000000000000000000000000000000000000000000000000027f0100000000000000000000000000000000000000000000000000000000000000900460ff16925084600182018151811015156114b657fe5b9060200101517f010000000000000000000000000000000000000000000000000000000000000090047f0100000000000000000000000000000000000000000000000000000000000000027f0100000000000000000000000000000000000000000000000000000000000000900460ff16915060618373ffffffffffffffffffffffffffffffffffffffff1610158015611567575060668373ffffffffffffffffffffffffffffffffffffffff1611155b1561157757605783039250611611565b60418373ffffffffffffffffffffffffffffffffffffffff16101580156115b5575060468373ffffffffffffffffffffffffffffffffffffffff1611155b156115c557603783039250611610565b60308373ffffffffffffffffffffffffffffffffffffffff1610158015611603575060398373ffffffffffffffffffffffffffffffffffffffff1611155b1561160f576030830392505b5b5b60618273ffffffffffffffffffffffffffffffffffffffff161015801561164f575060668273ffffffffffffffffffffffffffffffffffffffff1611155b1561165f576057820391506116f9565b60418273ffffffffffffffffffffffffffffffffffffffff161015801561169d575060468273ffffffffffffffffffffffffffffffffffffffff1611155b156116ad576037820391506116f8565b60308273ffffffffffffffffffffffffffffffffffffffff16101580156116eb575060398273ffffffffffffffffffffffffffffffffffffffff1611155b156116f7576030820391505b5b5b81601084020184019350600281019050611414565b5082945050505050919050565b60056004018190806001815401808255809150509060018203906000526020600020016000909192909190916101000a81548173ffffffffffffffffffffffffffffffffffffffff021916908373ffffffffffffffffffffffffffffffffffffffff1602179055505050565b60008073ffffffffffffffffffffffffffffffffffffffff16600160009054906101000a900473ffffffffffffffffffffffffffffffffffffffff1673ffffffffffffffffffffffffffffffffffffffff16148061180f5750600061180d600160009054906101000a900473ffffffffffffffffffffffffffffffffffffffff16611dea565b145b156118205761181e6000611df5565b505b600160009054906101000a900473ffffffffffffffffffffffffffffffffffffffff1673ffffffffffffffffffffffffffffffffffffffff166338cc48316040518163ffffffff167c0100000000000000000000000000000000000000000000000000000000028152600401602060405180830381600087803b1580156118a657600080fd5b505af11580156118ba573d6000803e3d6000fd5b505050506040513d60208110156118d057600080fd5b810190808051906020019092919050505073ffffffffffffffffffffffffffffffffffffffff166000809054906101000a900473ffffffffffffffffffffffffffffffffffffffff1673ffffffffffffffffffffffffffffffffffffffff16141515611a3757600160009054906101000a900473ffffffffffffffffffffffffffffffffffffffff1673ffffffffffffffffffffffffffffffffffffffff166338cc48316040518163ffffffff167c0100000000000000000000000000000000000000000000000000000000028152600401602060405180830381600087803b1580156119bc57600080fd5b505af11580156119d0573d6000803e3d6000fd5b505050506040513d60208110156119e657600080fd5b81019080805190602001909291905050506000806101000a81548173ffffffffffffffffffffffffffffffffffffffff021916908373ffffffffffffffffffffffffffffffffffffffff1602179055505b60008060009054906101000a900473ffffffffffffffffffffffffffffffffffffffff1673ffffffffffffffffffffffffffffffffffffffff1663524f3889856040518263ffffffff167c01000000000000000000000000000000000000000000000000000000000281526004018080602001828103825283818151815260200191508051906020019080838360005b83811015611ae2578082015181840152602081019050611ac7565b50505050905090810190601f168015611b0f5780820380516001836020036101000a031916815260200191505b5092505050602060405180830381600087803b158015611b2e57600080fd5b505af1158015611b42573d6000803e3d6000fd5b505050506040513d6020811015611b5857600080fd5b8101908080519060200190929190505050905062030d403a02670de0b6b3a764000001811115611b8f576000600102915050611d39565b6000809054906101000a900473ffffffffffffffffffffffffffffffffffffffff1673ffffffffffffffffffffffffffffffffffffffff1663adf59f99828787876040518563ffffffff167c0100000000000000000000000000000000000000000000000000000000028152600401808481526020018060200180602001838103835285818151815260200191508051906020019080838360005b83811015611c45578082015181840152602081019050611c2a565b50505050905090810190601f168015611c725780820380516001836020036101000a031916815260200191505b50838103825284818151815260200191508051906020019080838360005b83811015611cab578082015181840152602081019050611c90565b50505050905090810190601f168015611cd85780820380516001836020036101000a031916815260200191505b50955050505050506020604051808303818588803b158015611cf957600080fd5b505af1158015611d0d573d6000803e3d6000fd5b50505050506040513d6020811015611d2457600080fd5b81019080805190602001909291905050509150505b9392505050565b600080600090505b600560030180549050811015611ddf578273ffffffffffffffffffffffffffffffffffffffff16600560030182815481101515611d8157fe5b9060005260206000200160009054906101000a900473ffffffffffffffffffffffffffffffffffffffff1673ffffffffffffffffffffffffffffffffffffffff161415611dd2576001915050611de5565b8080600101915050611d48565b50600090505b919050565b6000813b9050919050565b6000611dff611e06565b9050919050565b600080611e26731d3b2638a7cc9f2cb3d298a3da7a90b67e5506ed611dea565b1115611ec857731d3b2638a7cc9f2cb3d298a3da7a90b67e5506ed600160006101000a81548173ffffffffffffffffffffffffffffffffffffffff021916908373ffffffffffffffffffffffffffffffffffffffff160217905550611ebf6040805190810160405280600b81526020017f6574685f6d61696e6e657400000000000000000000000000000000000000000081525061229c565b60019050612299565b6000611ee773c03a2615d5efaf5f49f60b7bb6583eaec212fdf1611dea565b1115611f895773c03a2615d5efaf5f49f60b7bb6583eaec212fdf1600160006101000a81548173ffffffffffffffffffffffffffffffffffffffff021916908373ffffffffffffffffffffffffffffffffffffffff160217905550611f806040805190810160405280600c81526020017f6574685f726f707374656e33000000000000000000000000000000000000000081525061229c565b60019050612299565b6000611fa873b7a07bcf2ba2f2703b24c0691b5278999c59ac7e611dea565b111561204a5773b7a07bcf2ba2f2703b24c0691b5278999c59ac7e600160006101000a81548173ffffffffffffffffffffffffffffffffffffffff021916908373ffffffffffffffffffffffffffffffffffffffff1602179055506120416040805190810160405280600981526020017f6574685f6b6f76616e000000000000000000000000000000000000000000000081525061229c565b60019050612299565b600061206973146500cfd35b22e4a392fe0adc06de1a1368ed48611dea565b111561210b5773146500cfd35b22e4a392fe0adc06de1a1368ed48600160006101000a81548173ffffffffffffffffffffffffffffffffffffffff021916908373ffffffffffffffffffffffffffffffffffffffff1602179055506121026040805190810160405280600b81526020017f6574685f72696e6b65627900000000000000000000000000000000000000000081525061229c565b60019050612299565b600061212a736f485c8bf6fc43ea212e93bbf8ce046c7f1cb475611dea565b111561218e57736f485c8bf6fc43ea212e93bbf8ce046c7f1cb475600160006101000a81548173ffffffffffffffffffffffffffffffffffffffff021916908373ffffffffffffffffffffffffffffffffffffffff16021790555060019050612299565b60006121ad7320e12a1f859b3feae5fb2a0a32c18f5a65555bbf611dea565b1115612211577320e12a1f859b3feae5fb2a0a32c18f5a65555bbf600160006101000a81548173ffffffffffffffffffffffffffffffffffffffff021916908373ffffffffffffffffffffffffffffffffffffffff16021790555060019050612299565b60006122307351efaf4c8b3c9afbd5ab9f4bbc82784ab6ef8faa611dea565b1115612294577351efaf4c8b3c9afbd5ab9f4bbc82784ab6ef8faa600160006101000a81548173ffffffffffffffffffffffffffffffffffffffff021916908373ffffffffffffffffffffffffffffffffffffffff16021790555060019050612299565b600090505b90565b80600290805190602001906122b29291906122b6565b5050565b828054600181600116156101000203166002900490600052602060002090601f016020900481019282601f106122f757805160ff1916838001178555612325565b82800160010185558215612325579182015b82811115612324578251825591602001919060010190612309565b5b5090506123329190612336565b5090565b61235891905b8082111561235457600081600090555060010161233c565b5090565b9056fea165627a7a7230582045ce6cd7ca0b0127623e1149b4c8cd54c1dba6324620473d53cc25c98f0382830029a165627a7a72305820ccaf01b1cb00c8f08761b1d19c089ccc603abb10bad04bd54002ccb14c4b35d10029",
  "source": "pragma solidity ^0.5.0;\r\n\r\nimport \"./PuzzleBet.sol\";\r\n//Will be needed to create bets through composition.\r\n//Our factory contract , this is deployed by us as developers.\r\ncontract BettingFactory {\r\n    address[] public bets;\r\n\r\n    //Instantiates a new Weather bet\r\n    // function createWeatherBet(uint _value, uint _maxParticipators, bool _open, bool _friendsOnly, uint _betLength) public returns (address) {\r\n    //     address betAddress = address(new WeatherBet(msg.sender , _value , _maxParticipators , _open , _friendsOnly , _betLength));\r\n    //     bets.push(betAddress);\r\n    //     return betAddress;\r\n    // } \r\n\r\n    //Instantiates a new PuzzleBet\r\n    function createPuzzleBet(uint _value, uint _maxParticipators, bool _open, bool _friendsOnly, uint _betLength) public returns (address) {\r\n        address betAddress = address(new PuzzleBet(msg.sender , _value , _maxParticipators , _open , _friendsOnly , _betLength));\r\n        bets.push(betAddress);\r\n        return betAddress;\r\n    }\r\n\r\n    //Gets all current bets that a user has.\r\n    function getOwnedBets(address ownerAddress) public view returns (address[] memory) {\r\n        address[] memory allBets = new address[](bets.length);\r\n        uint256 currentIndice = 0;\r\n        for (uint256 index = 0; index < bets.length; index++) {\r\n            Bet bet = Bet(bets[index]);\r\n            if (bet.getOwner() == ownerAddress) {\r\n                allBets[currentIndice] = address(bet);\r\n                currentIndice++;  \r\n            }\r\n        }\r\n        address[] memory ownedBets = new address[](currentIndice);\r\n        for (uint256 index = 0 ; index < currentIndice; index++) {\r\n            ownedBets[index] = allBets[index]; \r\n        }\r\n        return ownedBets;\r\n    }\r\n}\r\n",
  "sourcePath": "C:/Users/Oscar Druiventak/Desktop/code/Ethereum-Betting/Ethereum Betting/ClientApp/contracts/BettingFactory.sol",
  "compiler": {
    "name": "solc",
    "version": "0.5.0+commit.1d4f565a.Emscripten.clang"
  },
  "schemaVersion": "3.0.8",
  "updatedAt": "2019-06-13T11:49:25.779Z",
  "devdoc": {
    "methods": {}
  },
  "userdoc": {
    "methods": {}
  }
}