{
  "contractName": "PuzzleBet",
  "abi": [
    {
      "constant": true,
      "inputs": [],
      "name": "timeLeft",
      "outputs": [
        {
          "name": "",
          "type": "uint256"
        }
      ],
      "payable": false,
      "stateMutability": "view",
      "type": "function",
      "signature": "0x1300a6d1"
    },
    {
      "constant": true,
      "inputs": [],
      "name": "getStoredBalance",
      "outputs": [
        {
          "name": "",
          "type": "uint256"
        }
      ],
      "payable": false,
      "stateMutability": "view",
      "type": "function",
      "signature": "0x1e6be911"
    },
    {
      "constant": false,
      "inputs": [],
      "name": "withdraw",
      "outputs": [],
      "payable": false,
      "stateMutability": "nonpayable",
      "type": "function",
      "signature": "0x3ccfd60b"
    },
    {
      "constant": true,
      "inputs": [],
      "name": "isOpen",
      "outputs": [
        {
          "name": "",
          "type": "bool"
        }
      ],
      "payable": false,
      "stateMutability": "view",
      "type": "function",
      "signature": "0x47535d7b"
    },
    {
      "constant": true,
      "inputs": [],
      "name": "getOwner",
      "outputs": [
        {
          "name": "",
          "type": "address"
        }
      ],
      "payable": false,
      "stateMutability": "view",
      "type": "function",
      "signature": "0x893d20e8"
    },
    {
      "constant": true,
      "inputs": [],
      "name": "friendsOnly",
      "outputs": [
        {
          "name": "",
          "type": "bool"
        }
      ],
      "payable": false,
      "stateMutability": "view",
      "type": "function",
      "signature": "0x89b5af53"
    },
    {
      "constant": true,
      "inputs": [],
      "name": "checkJoined",
      "outputs": [
        {
          "name": "",
          "type": "bool"
        }
      ],
      "payable": false,
      "stateMutability": "view",
      "type": "function",
      "signature": "0x9d26c6f2"
    },
    {
      "constant": false,
      "inputs": [],
      "name": "join",
      "outputs": [],
      "payable": true,
      "stateMutability": "payable",
      "type": "function",
      "signature": "0xb688a363"
    },
    {
      "constant": true,
      "inputs": [],
      "name": "finished",
      "outputs": [
        {
          "name": "",
          "type": "bool"
        }
      ],
      "payable": false,
      "stateMutability": "view",
      "type": "function",
      "signature": "0xbef4876b"
    },
    {
      "constant": true,
      "inputs": [],
      "name": "getWinners",
      "outputs": [
        {
          "name": "",
          "type": "address[]"
        }
      ],
      "payable": false,
      "stateMutability": "view",
      "type": "function",
      "signature": "0xdf15c37e"
    },
    {
      "constant": true,
      "inputs": [],
      "name": "getCreationTime",
      "outputs": [
        {
          "name": "",
          "type": "uint256"
        }
      ],
      "payable": false,
      "stateMutability": "view",
      "type": "function",
      "signature": "0xe6519a35"
    },
    {
      "constant": true,
      "inputs": [],
      "name": "getParticipators",
      "outputs": [
        {
          "name": "",
          "type": "address[]"
        }
      ],
      "payable": false,
      "stateMutability": "view",
      "type": "function",
      "signature": "0xf8a0b695"
    },
    {
      "constant": true,
      "inputs": [],
      "name": "getBetAmount",
      "outputs": [
        {
          "name": "",
          "type": "uint256"
        }
      ],
      "payable": false,
      "stateMutability": "view",
      "type": "function",
      "signature": "0xfde41e29"
    },
    {
      "inputs": [
        {
          "name": "_owner",
          "type": "address"
        },
        {
          "name": "_amount",
          "type": "uint256"
        },
        {
          "name": "_maxParticipators",
          "type": "uint256"
        },
        {
          "name": "_open",
          "type": "bool"
        },
        {
          "name": "_friendsOnly",
          "type": "bool"
        },
        {
          "name": "_betLength",
          "type": "uint256"
        }
      ],
      "payable": false,
      "stateMutability": "nonpayable",
      "type": "constructor",
      "signature": "constructor"
    },
    {
      "anonymous": false,
      "inputs": [
        {
          "indexed": false,
          "name": "val",
          "type": "string"
        }
      ],
      "name": "TestEvent",
      "type": "event",
      "signature": "0xe75028ff36bb6473da3731a30e1aeeae9988e2415dba2c4e91e0357955065fba"
    },
    {
      "anonymous": false,
      "inputs": [
        {
          "indexed": false,
          "name": "val",
          "type": "string"
        }
      ],
      "name": "Winner",
      "type": "event",
      "signature": "0x1e1f22c88be4eb57512afdedf796b878457b4d104150bb48d3614b166a0415b8"
    },
    {
      "anonymous": false,
      "inputs": [
        {
          "indexed": false,
          "name": "length",
          "type": "uint256"
        }
      ],
      "name": "Length",
      "type": "event",
      "signature": "0x090488eede6071b3dc8bd6f7821d5d6d147602c20be98ed1250b52537184572e"
    },
    {
      "anonymous": false,
      "inputs": [
        {
          "indexed": false,
          "name": "betAdr",
          "type": "address"
        }
      ],
      "name": "Address",
      "type": "event",
      "signature": "0xebfb412ded3f9cdb15b75308503b279416e74d382f6ce86eedee0ef3130fa9e3"
    },
    {
      "anonymous": false,
      "inputs": [
        {
          "indexed": false,
          "name": "winners",
          "type": "address[]"
        }
      ],
      "name": "Winners",
      "type": "event",
      "signature": "0x269ee29ef3602a66e11783821e5f60cb92750b4c4c9294864c8c450b3bf6a436"
    },
    {
      "constant": true,
      "inputs": [
        {
          "name": "_addr",
          "type": "address"
        }
      ],
      "name": "addressToString",
      "outputs": [
        {
          "name": "",
          "type": "string"
        }
      ],
      "payable": false,
      "stateMutability": "pure",
      "type": "function",
      "signature": "0x5e57966d"
    },
    {
      "constant": false,
      "inputs": [],
      "name": "xs",
      "outputs": [],
      "payable": true,
      "stateMutability": "payable",
      "type": "function",
      "signature": "0x578a2b32"
    },
    {
      "constant": false,
      "inputs": [
        {
          "name": "myid",
          "type": "bytes32"
        },
        {
          "name": "result",
          "type": "string"
        }
      ],
      "name": "__callback",
      "outputs": [],
      "payable": false,
      "stateMutability": "nonpayable",
      "type": "function",
      "signature": "0x27dc297e"
    },
    {
      "constant": false,
      "inputs": [
        {
          "name": "_myid",
          "type": "bytes32"
        },
        {
          "name": "_result",
          "type": "string"
        },
        {
          "name": "_proof",
          "type": "bytes"
        }
      ],
      "name": "__callback",
      "outputs": [],
      "payable": false,
      "stateMutability": "nonpayable",
      "type": "function",
      "signature": "0x38bbfa50"
    },
    {
      "constant": false,
      "inputs": [
        {
          "name": "winners",
          "type": "string"
        }
      ],
      "name": "TestAddWinners",
      "outputs": [],
      "payable": false,
      "stateMutability": "nonpayable",
      "type": "function",
      "signature": "0x6bba01a0"
    }
  ],
  "bytecode": "0x60806040523480156200001157600080fd5b5060405160c0806200385f833981018060405260c08110156200003357600080fd5b8101908080519060200190929190805190602001909291908051906020019092919080519060200190929190805190602001909291908051906020019092919050505060008111801562000088575060408411155b8015620000955750600084115b15156200010a576040517f08c379a000000000000000000000000000000000000000000000000000000000815260040180806020018281038252601e8152602001807f4661696c656420746f20737570706c7920636f727265637420696e707574000081525060200191505060405180910390fd5b4260066000018190555085600660020160006101000a81548173ffffffffffffffffffffffffffffffffffffffff021916908373ffffffffffffffffffffffffffffffffffffffff1602179055508460066005018190555083600680018190555082600660070160006101000a81548160ff02191690831515021790555081600660070160016101000a81548160ff0219169083151502179055506000600660070160026101000a81548160ff02191690831515021790555080603c0260066001018190555030600e60006101000a81548173ffffffffffffffffffffffffffffffffffffffff021916908373ffffffffffffffffffffffffffffffffffffffff1602179055506060608060405190810160405280604881526020017f68747470733a2f2f6c6f63616c686f73743a353030312f6170692f536c69646981526020017f6e6750757a7a6c654265742f47657457696e6e6572733f61646472657373507581526020017f7a7a6c654265743d00000000000000000000000000000000000000000000000081525090506060620002b430620002f7640100000000026401000000009004565b9050620002d18282620006bc640100000000026401000000009004565b600f9080519060200190620002e892919062000b44565b50505050505050505062000bf3565b606060008273ffffffffffffffffffffffffffffffffffffffff16600102905060606040805190810160405280601081526020017f303132333435363738396162636465660000000000000000000000000000000081525090506060602a6040519080825280601f01601f191660200182016040528015620003885781602001600182028038833980820191505090505b5090507f3000000000000000000000000000000000000000000000000000000000000000816000815181101515620003bc57fe5b9060200101907effffffffffffffffffffffffffffffffffffffffffffffffffffffffffffff1916908160001a9053507f78000000000000000000000000000000000000000000000000000000000000008160018151811015156200041d57fe5b9060200101907effffffffffffffffffffffffffffffffffffffffffffffffffffffffffffff1916908160001a90535060008090505b6014811015620006b05782600485600c84016020811015156200047257fe5b1a7f0100000000000000000000000000000000000000000000000000000000000000027effffffffffffffffffffffffffffffffffffffffffffffffffffffffffffff1916908060020a82049150507f0100000000000000000000000000000000000000000000000000000000000000900460ff16815181101515620004f457fe5b9060200101517f010000000000000000000000000000000000000000000000000000000000000090047f01000000000000000000000000000000000000000000000000000000000000000282600283026002018151811015156200055457fe5b9060200101907effffffffffffffffffffffffffffffffffffffffffffffffffffffffffffff1916908160001a90535082600f7f01000000000000000000000000000000000000000000000000000000000000000285600c8401602081101515620005bb57fe5b1a7f010000000000000000000000000000000000000000000000000000000000000002167f0100000000000000000000000000000000000000000000000000000000000000900460ff168151811015156200061257fe5b9060200101517f010000000000000000000000000000000000000000000000000000000000000090047f01000000000000000000000000000000000000000000000000000000000000000282600283026003018151811015156200067257fe5b9060200101907effffffffffffffffffffffffffffffffffffffffffffffffffffffffffffff1916908160001a905350808060010191505062000453565b50809350505050919050565b60606200070c838360206040519081016040528060008152506020604051908101604052806000815250602060405190810160405280600081525062000714640100000000026401000000009004565b905092915050565b6060808690506060869050606086905060608690506060869050606081518351855187518951010101016040519080825280601f01601f191660200182016040528015620007715781602001600182028038833980820191505090505b509050606081905060008090506000809050600090505b88518110156200083f578881815181101515620007a157fe5b9060200101517f010000000000000000000000000000000000000000000000000000000000000090047f01000000000000000000000000000000000000000000000000000000000000000283838060010194508151811015156200080157fe5b9060200101907effffffffffffffffffffffffffffffffffffffffffffffffffffffffffffff1916908160001a905350808060010191505062000788565b600090505b8751811015620008fb5787818151811015156200085d57fe5b9060200101517f010000000000000000000000000000000000000000000000000000000000000090047f0100000000000000000000000000000000000000000000000000000000000000028383806001019450815181101515620008bd57fe5b9060200101907effffffffffffffffffffffffffffffffffffffffffffffffffffffffffffff1916908160001a905350808060010191505062000844565b600090505b8651811015620009b75786818151811015156200091957fe5b9060200101517f010000000000000000000000000000000000000000000000000000000000000090047f01000000000000000000000000000000000000000000000000000000000000000283838060010194508151811015156200097957fe5b9060200101907effffffffffffffffffffffffffffffffffffffffffffffffffffffffffffff1916908160001a905350808060010191505062000900565b600090505b855181101562000a73578581815181101515620009d557fe5b9060200101517f010000000000000000000000000000000000000000000000000000000000000090047f010000000000000000000000000000000000000000000000000000000000000002838380600101945081518110151562000a3557fe5b9060200101907effffffffffffffffffffffffffffffffffffffffffffffffffffffffffffff1916908160001a9053508080600101915050620009bc565b600090505b845181101562000b2f57848181518110151562000a9157fe5b9060200101517f010000000000000000000000000000000000000000000000000000000000000090047f010000000000000000000000000000000000000000000000000000000000000002838380600101945081518110151562000af157fe5b9060200101907effffffffffffffffffffffffffffffffffffffffffffffffffffffffffffff1916908160001a905350808060010191505062000a78565b82995050505050505050505095945050505050565b828054600181600116156101000203166002900490600052602060002090601f016020900481019282601f1062000b8757805160ff191683800117855562000bb8565b8280016001018555821562000bb8579182015b8281111562000bb757825182559160200191906001019062000b9a565b5b50905062000bc7919062000bcb565b5090565b62000bf091905b8082111562000bec57600081600090555060010162000bd2565b5090565b90565b612c5c8062000c036000396000f3fe6080604052600436106100fc576000357c0100000000000000000000000000000000000000000000000000000000900463ffffffff1680631300a6d1146101015780631e6be9111461012c57806327dc297e1461015757806338bbfa50146102295780633ccfd60b1461039257806347535d7b146103a9578063578a2b32146103d85780635e57966d146103e25780636bba01a0146104ac578063893d20e81461057457806389b5af53146105cb5780639d26c6f2146105fa578063b688a36314610629578063bef4876b14610633578063df15c37e14610662578063e6519a35146106ce578063f8a0b695146106f9578063fde41e2914610765575b600080fd5b34801561010d57600080fd5b50610116610790565b6040518082815260200191505060405180910390f35b34801561013857600080fd5b506101416107b2565b6040518082815260200191505060405180910390f35b34801561016357600080fd5b506102276004803603604081101561017a57600080fd5b8101908080359060200190929190803590602001906401000000008111156101a157600080fd5b8201836020820111156101b357600080fd5b803590602001918460018302840111640100000000831117156101d557600080fd5b91908080601f016020809104026020016040519081016040528093929190818152602001838380828437600081840152601f19601f8201169050808301925050505050505091929192905050506107d1565b005b34801561023557600080fd5b506103906004803603606081101561024c57600080fd5b81019080803590602001909291908035906020019064010000000081111561027357600080fd5b82018360208201111561028557600080fd5b803590602001918460018302840111640100000000831117156102a757600080fd5b91908080601f016020809104026020016040519081016040528093929190818152602001838380828437600081840152601f19601f8201169050808301925050505050505091929192908035906020019064010000000081111561030a57600080fd5b82018360208201111561031c57600080fd5b8035906020019184600183028401116401000000008311171561033e57600080fd5b91908080601f016020809104026020016040519081016040528093929190818152602001838380828437600081840152601f19601f820116905080830192505050505050509192919290505050610b1c565b005b34801561039e57600080fd5b506103a7610b21565b005b3480156103b557600080fd5b506103be610bf4565b604051808215151515815260200191505060405180910390f35b6103e0610c0e565b005b3480156103ee57600080fd5b506104316004803603602081101561040557600080fd5b81019080803573ffffffffffffffffffffffffffffffffffffffff169060200190929190505050610cf0565b6040518080602001828103825283818151815260200191508051906020019080838360005b83811015610471578082015181840152602081019050610456565b50505050905090810190601f16801561049e5780820380516001836020036101000a031916815260200191505b509250505060405180910390f35b3480156104b857600080fd5b50610572600480360360208110156104cf57600080fd5b81019080803590602001906401000000008111156104ec57600080fd5b8201836020820111156104fe57600080fd5b8035906020019184600183028401116401000000008311171561052057600080fd5b91908080601f016020809104026020016040519081016040528093929190818152602001838380828437600081840152601f19601f8201169050808301925050505050505091929192905050506110aa565b005b34801561058057600080fd5b5061058961130e565b604051808273ffffffffffffffffffffffffffffffffffffffff1673ffffffffffffffffffffffffffffffffffffffff16815260200191505060405180910390f35b3480156105d757600080fd5b506105e061133b565b604051808215151515815260200191505060405180910390f35b34801561060657600080fd5b5061060f611443565b604051808215151515815260200191505060405180910390f35b610631611453565b005b34801561063f57600080fd5b50610648611656565b604051808215151515815260200191505060405180910390f35b34801561066e57600080fd5b50610677611670565b6040518080602001828103825283818151815260200191508051906020019060200280838360005b838110156106ba57808201518184015260208101905061069f565b505050509050019250505060405180910390f35b3480156106da57600080fd5b506106e3611701565b6040518082815260200191505060405180910390f35b34801561070557600080fd5b5061070e61170e565b6040518080602001828103825283818151815260200191508051906020019060200280838360005b83811015610751578082015181840152602081019050610736565b505050509050019250505060405180910390f35b34801561077157600080fd5b5061077a61179f565b6040518082815260200191505060405180910390f35b6000603c6006600101540242600660000154038115156107ac57fe5b04905090565b60003073ffffffffffffffffffffffffffffffffffffffff1631905090565b6107d96117ac565b73ffffffffffffffffffffffffffffffffffffffff163373ffffffffffffffffffffffffffffffffffffffff1614151561081257600080fd5b7fe75028ff36bb6473da3731a30e1aeeae9988e2415dba2c4e91e0357955065fba816040518080602001828103825283818151815260200191508051906020019080838360005b83811015610874578082015181840152602081019050610859565b50505050905090810190601f1680156108a15780820380516001836020036101000a031916815260200191505b509250505060405180910390a1606081905060008090506060602a6040519080825280601f01601f1916602001820160405280156108ee5781602001600182028038833980820191505090505b50905060008090507f090488eede6071b3dc8bd6f7821d5d6d147602c20be98ed1250b52537184572e84516040518082815260200191505060405180910390a160008090505b8451811015610a645760011515821515141561095357600091506109fd565b602a8410156109fc57848181518110151561096a57fe5b9060200101517f010000000000000000000000000000000000000000000000000000000000000090047f01000000000000000000000000000000000000000000000000000000000000000283858151811015156109c357fe5b9060200101907effffffffffffffffffffffffffffffffffffffffffffffffffffffffffffff1916908160001a90535083806001019450505b5b602a841415610a5757610a17610a1284611b1f565b611e3c565b60019150602a6040519080825280601f01601f191660200182016040528015610a4f5781602001600182028038833980820191505090505b509250600093505b8080600101915050610934565b507f269ee29ef3602a66e11783821e5f60cb92750b4c4c9294864c8c450b3bf6a436600660040160405180806020018281038252838181548152602001915080548015610b0657602002820191906000526020600020905b8160009054906101000a900473ffffffffffffffffffffffffffffffffffffffff1673ffffffffffffffffffffffffffffffffffffffff1681526020019060010190808311610abc575b50509250505060405180910390a1505050505050565b505050565b6000600560003373ffffffffffffffffffffffffffffffffffffffff1673ffffffffffffffffffffffffffffffffffffffff1681526020019081526020016000205490506000600560003373ffffffffffffffffffffffffffffffffffffffff1673ffffffffffffffffffffffffffffffffffffffff168152602001908152602001600020819055503373ffffffffffffffffffffffffffffffffffffffff166108fc829081150290604051600060405180830381858888f19350505050158015610bf0573d6000803e3d6000fd5b5050565b6000600660070160009054906101000a900460ff16905090565b610ced6006600101546040805190810160405280600381526020017f55524c0000000000000000000000000000000000000000000000000000000000815250600f8054600181600116156101000203166002900480601f016020809104026020016040519081016040528092919081815260200182805460018160011615610100020316600290048015610ce35780601f10610cb857610100808354040283529160200191610ce3565b820191906000526020600020905b815481529060010190602001808311610cc657829003601f168201915b5050505050611ea8565b50565b606060008273ffffffffffffffffffffffffffffffffffffffff16600102905060606040805190810160405280601081526020017f303132333435363738396162636465660000000000000000000000000000000081525090506060602a6040519080825280601f01601f191660200182016040528015610d805781602001600182028038833980820191505090505b5090507f3000000000000000000000000000000000000000000000000000000000000000816000815181101515610db357fe5b9060200101907effffffffffffffffffffffffffffffffffffffffffffffffffffffffffffff1916908160001a9053507f7800000000000000000000000000000000000000000000000000000000000000816001815181101515610e1357fe5b9060200101907effffffffffffffffffffffffffffffffffffffffffffffffffffffffffffff1916908160001a90535060008090505b601481101561109e5782600485600c8401602081101515610e6657fe5b1a7f0100000000000000000000000000000000000000000000000000000000000000027effffffffffffffffffffffffffffffffffffffffffffffffffffffffffffff1916908060020a82049150507f0100000000000000000000000000000000000000000000000000000000000000900460ff16815181101515610ee757fe5b9060200101517f010000000000000000000000000000000000000000000000000000000000000090047f0100000000000000000000000000000000000000000000000000000000000000028260028302600201815181101515610f4657fe5b9060200101907effffffffffffffffffffffffffffffffffffffffffffffffffffffffffffff1916908160001a90535082600f7f01000000000000000000000000000000000000000000000000000000000000000285600c8401602081101515610fac57fe5b1a7f010000000000000000000000000000000000000000000000000000000000000002167f0100000000000000000000000000000000000000000000000000000000000000900460ff1681518110151561100257fe5b9060200101517f010000000000000000000000000000000000000000000000000000000000000090047f010000000000000000000000000000000000000000000000000000000000000002826002830260030181518110151561106157fe5b9060200101907effffffffffffffffffffffffffffffffffffffffffffffffffffffffffffff1916908160001a9053508080600101915050610e49565b50809350505050919050565b606081905060008090506060602a6040519080825280601f01601f1916602001820160405280156110ea5781602001600182028038833980820191505090505b509050600080905060008090505b845181101561124f5760011515821515141561111757600091506111c1565b602a8410156111c057848181518110151561112e57fe5b9060200101517f010000000000000000000000000000000000000000000000000000000000000090047f010000000000000000000000000000000000000000000000000000000000000002838581518110151561118757fe5b9060200101907effffffffffffffffffffffffffffffffffffffffffffffffffffffffffffff1916908160001a90535083806001019450505b5b602a8414156112425760006111d584611b1f565b90506111e081612461565b80156111f257506111f08161250b565b155b156112015761120081611e3c565b5b60019250602a6040519080825280601f01601f1916602001820160405280156112395781602001600182028038833980820191505090505b50935060009450505b80806001019150506110f8565b506112586125b5565b7f269ee29ef3602a66e11783821e5f60cb92750b4c4c9294864c8c450b3bf6a4366006600401604051808060200182810382528381815481526020019150805480156112f957602002820191906000526020600020905b8160009054906101000a900473ffffffffffffffffffffffffffffffffffffffff1673ffffffffffffffffffffffffffffffffffffffff16815260200190600101908083116112af575b50509250505060405180910390a15050505050565b6000600660020160009054906101000a900473ffffffffffffffffffffffffffffffffffffffff16905090565b6000600660020160009054906101000a900473ffffffffffffffffffffffffffffffffffffffff1673ffffffffffffffffffffffffffffffffffffffff163373ffffffffffffffffffffffffffffffffffffffff1614151561142b576040517f08c379a00000000000000000000000000000000000000000000000000000000081526004018080602001828103825260228152602001807f4f6e6c79206f776e65722063616e2063616c6c20746869732066756e6374696f81526020017f6e2e00000000000000000000000000000000000000000000000000000000000081525060400191505060405180910390fd5b600660070160019054906101000a900460ff16905090565b600061144e33612461565b905090565b670de0b6b3a764000060066005015402341415156114d9576040517f08c379a000000000000000000000000000000000000000000000000000000000815260040180806020018281038252600f8152602001807f52657175697265732045746865722e000000000000000000000000000000000081525060200191505060405180910390fd5b60011515600660070160009054906101000a900460ff161515141515611567576040517f08c379a000000000000000000000000000000000000000000000000000000000815260040180806020018281038252600f8152602001807f426574206973206e6f74206f70656e000000000000000000000000000000000081525060200191505060405180910390fd5b6000151561157433612461565b15151415156115eb576040517f08c379a00000000000000000000000000000000000000000000000000000000081526004018080602001828103825260208152602001807f557365722068617320616c7265616479206a6f696e656420746869732062657481525060200191505060405180910390fd5b60066003013390806001815401808255809150509060018203906000526020600020016000909192909190916101000a81548173ffffffffffffffffffffffffffffffffffffffff021916908373ffffffffffffffffffffffffffffffffffffffff16021790555050565b6000600660070160029054906101000a900460ff16905090565b606060066004018054806020026020016040519081016040528092919081815260200182805480156116f757602002820191906000526020600020905b8160009054906101000a900473ffffffffffffffffffffffffffffffffffffffff1673ffffffffffffffffffffffffffffffffffffffff16815260200190600101908083116116ad575b5050505050905090565b6000600660000154905090565b6060600660030180548060200260200160405190810160405280929190818152602001828054801561179557602002820191906000526020600020905b8160009054906101000a900473ffffffffffffffffffffffffffffffffffffffff1673ffffffffffffffffffffffffffffffffffffffff168152602001906001019080831161174b575b5050505050905090565b6000600660050154905090565b60008073ffffffffffffffffffffffffffffffffffffffff16600160009054906101000a900473ffffffffffffffffffffffffffffffffffffffff1673ffffffffffffffffffffffffffffffffffffffff16148061183457506000611832600160009054906101000a900473ffffffffffffffffffffffffffffffffffffffff166126bf565b145b156118455761184360006126ca565b505b600160009054906101000a900473ffffffffffffffffffffffffffffffffffffffff1673ffffffffffffffffffffffffffffffffffffffff166338cc48316040518163ffffffff167c0100000000000000000000000000000000000000000000000000000000028152600401602060405180830381600087803b1580156118cb57600080fd5b505af11580156118df573d6000803e3d6000fd5b505050506040513d60208110156118f557600080fd5b810190808051906020019092919050505073ffffffffffffffffffffffffffffffffffffffff166000809054906101000a900473ffffffffffffffffffffffffffffffffffffffff1673ffffffffffffffffffffffffffffffffffffffff16141515611a5c57600160009054906101000a900473ffffffffffffffffffffffffffffffffffffffff1673ffffffffffffffffffffffffffffffffffffffff166338cc48316040518163ffffffff167c0100000000000000000000000000000000000000000000000000000000028152600401602060405180830381600087803b1580156119e157600080fd5b505af11580156119f5573d6000803e3d6000fd5b505050506040513d6020811015611a0b57600080fd5b81019080805190602001909291905050506000806101000a81548173ffffffffffffffffffffffffffffffffffffffff021916908373ffffffffffffffffffffffffffffffffffffffff1602179055505b6000809054906101000a900473ffffffffffffffffffffffffffffffffffffffff1673ffffffffffffffffffffffffffffffffffffffff1663c281d19e6040518163ffffffff167c010000000000000000000000000000000000000000000000000000000002815260040160206040518083038186803b158015611adf57600080fd5b505afa158015611af3573d6000803e3d6000fd5b505050506040513d6020811015611b0957600080fd5b8101908080519060200190929190505050905090565b6000606082905060008090506000806000600290505b602a811015611e2f57610100840293508481815181101515611b5357fe5b9060200101517f010000000000000000000000000000000000000000000000000000000000000090047f0100000000000000000000000000000000000000000000000000000000000000027f0100000000000000000000000000000000000000000000000000000000000000900460ff1692508460018201815181101515611bd757fe5b9060200101517f010000000000000000000000000000000000000000000000000000000000000090047f0100000000000000000000000000000000000000000000000000000000000000027f0100000000000000000000000000000000000000000000000000000000000000900460ff16915060618373ffffffffffffffffffffffffffffffffffffffff1610158015611c88575060668373ffffffffffffffffffffffffffffffffffffffff1611155b15611c9857605783039250611d32565b60418373ffffffffffffffffffffffffffffffffffffffff1610158015611cd6575060468373ffffffffffffffffffffffffffffffffffffffff1611155b15611ce657603783039250611d31565b60308373ffffffffffffffffffffffffffffffffffffffff1610158015611d24575060398373ffffffffffffffffffffffffffffffffffffffff1611155b15611d30576030830392505b5b5b60618273ffffffffffffffffffffffffffffffffffffffff1610158015611d70575060668273ffffffffffffffffffffffffffffffffffffffff1611155b15611d8057605782039150611e1a565b60418273ffffffffffffffffffffffffffffffffffffffff1610158015611dbe575060468273ffffffffffffffffffffffffffffffffffffffff1611155b15611dce57603782039150611e19565b60308273ffffffffffffffffffffffffffffffffffffffff1610158015611e0c575060398273ffffffffffffffffffffffffffffffffffffffff1611155b15611e18576030820391505b5b5b81601084020184019350600281019050611b35565b5082945050505050919050565b60066004018190806001815401808255809150509060018203906000526020600020016000909192909190916101000a81548173ffffffffffffffffffffffffffffffffffffffff021916908373ffffffffffffffffffffffffffffffffffffffff1602179055505050565b60008073ffffffffffffffffffffffffffffffffffffffff16600160009054906101000a900473ffffffffffffffffffffffffffffffffffffffff1673ffffffffffffffffffffffffffffffffffffffff161480611f3057506000611f2e600160009054906101000a900473ffffffffffffffffffffffffffffffffffffffff166126bf565b145b15611f4157611f3f60006126ca565b505b600160009054906101000a900473ffffffffffffffffffffffffffffffffffffffff1673ffffffffffffffffffffffffffffffffffffffff166338cc48316040518163ffffffff167c0100000000000000000000000000000000000000000000000000000000028152600401602060405180830381600087803b158015611fc757600080fd5b505af1158015611fdb573d6000803e3d6000fd5b505050506040513d6020811015611ff157600080fd5b810190808051906020019092919050505073ffffffffffffffffffffffffffffffffffffffff166000809054906101000a900473ffffffffffffffffffffffffffffffffffffffff1673ffffffffffffffffffffffffffffffffffffffff1614151561215857600160009054906101000a900473ffffffffffffffffffffffffffffffffffffffff1673ffffffffffffffffffffffffffffffffffffffff166338cc48316040518163ffffffff167c0100000000000000000000000000000000000000000000000000000000028152600401602060405180830381600087803b1580156120dd57600080fd5b505af11580156120f1573d6000803e3d6000fd5b505050506040513d602081101561210757600080fd5b81019080805190602001909291905050506000806101000a81548173ffffffffffffffffffffffffffffffffffffffff021916908373ffffffffffffffffffffffffffffffffffffffff1602179055505b60008060009054906101000a900473ffffffffffffffffffffffffffffffffffffffff1673ffffffffffffffffffffffffffffffffffffffff1663524f3889856040518263ffffffff167c01000000000000000000000000000000000000000000000000000000000281526004018080602001828103825283818151815260200191508051906020019080838360005b838110156122035780820151818401526020810190506121e8565b50505050905090810190601f1680156122305780820380516001836020036101000a031916815260200191505b5092505050602060405180830381600087803b15801561224f57600080fd5b505af1158015612263573d6000803e3d6000fd5b505050506040513d602081101561227957600080fd5b8101908080519060200190929190505050905062030d403a02670de0b6b3a7640000018111156122b057600060010291505061245a565b6000809054906101000a900473ffffffffffffffffffffffffffffffffffffffff1673ffffffffffffffffffffffffffffffffffffffff1663adf59f99828787876040518563ffffffff167c0100000000000000000000000000000000000000000000000000000000028152600401808481526020018060200180602001838103835285818151815260200191508051906020019080838360005b8381101561236657808201518184015260208101905061234b565b50505050905090810190601f1680156123935780820380516001836020036101000a031916815260200191505b50838103825284818151815260200191508051906020019080838360005b838110156123cc5780820151818401526020810190506123b1565b50505050905090810190601f1680156123f95780820380516001836020036101000a031916815260200191505b50955050505050506020604051808303818588803b15801561241a57600080fd5b505af115801561242e573d6000803e3d6000fd5b50505050506040513d602081101561244557600080fd5b81019080805190602001909291905050509150505b9392505050565b600080600090505b600660030180549050811015612500578273ffffffffffffffffffffffffffffffffffffffff166006600301828154811015156124a257fe5b9060005260206000200160009054906101000a900473ffffffffffffffffffffffffffffffffffffffff1673ffffffffffffffffffffffffffffffffffffffff1614156124f3576001915050612506565b8080600101915050612469565b50600090505b919050565b600080600090505b6006600401805490508110156125aa578273ffffffffffffffffffffffffffffffffffffffff1660066004018281548110151561254c57fe5b9060005260206000200160009054906101000a900473ffffffffffffffffffffffffffffffffffffffff1673ffffffffffffffffffffffffffffffffffffffff16141561259d5760019150506125b0565b8080600101915050612513565b50600090505b919050565b6000809050600060066004018054905011156126185760006125d56107b2565b90505b6000600660040180549050828115156125ed57fe5b06141515612600576001810390506125d8565b6006600401805490508181151561261357fe5b049150505b60008090505b6006600401805490508110156126bb57816005600060066004018481548110151561264557fe5b9060005260206000200160009054906101000a900473ffffffffffffffffffffffffffffffffffffffff1673ffffffffffffffffffffffffffffffffffffffff1673ffffffffffffffffffffffffffffffffffffffff16815260200190815260200160002081905550808060010191505061261e565b5050565b6000813b9050919050565b60006126d46126db565b9050919050565b6000806126fb731d3b2638a7cc9f2cb3d298a3da7a90b67e5506ed6126bf565b111561279d57731d3b2638a7cc9f2cb3d298a3da7a90b67e5506ed600160006101000a81548173ffffffffffffffffffffffffffffffffffffffff021916908373ffffffffffffffffffffffffffffffffffffffff1602179055506127946040805190810160405280600b81526020017f6574685f6d61696e6e6574000000000000000000000000000000000000000000815250612b71565b60019050612b6e565b60006127bc73c03a2615d5efaf5f49f60b7bb6583eaec212fdf16126bf565b111561285e5773c03a2615d5efaf5f49f60b7bb6583eaec212fdf1600160006101000a81548173ffffffffffffffffffffffffffffffffffffffff021916908373ffffffffffffffffffffffffffffffffffffffff1602179055506128556040805190810160405280600c81526020017f6574685f726f707374656e330000000000000000000000000000000000000000815250612b71565b60019050612b6e565b600061287d73b7a07bcf2ba2f2703b24c0691b5278999c59ac7e6126bf565b111561291f5773b7a07bcf2ba2f2703b24c0691b5278999c59ac7e600160006101000a81548173ffffffffffffffffffffffffffffffffffffffff021916908373ffffffffffffffffffffffffffffffffffffffff1602179055506129166040805190810160405280600981526020017f6574685f6b6f76616e0000000000000000000000000000000000000000000000815250612b71565b60019050612b6e565b600061293e73146500cfd35b22e4a392fe0adc06de1a1368ed486126bf565b11156129e05773146500cfd35b22e4a392fe0adc06de1a1368ed48600160006101000a81548173ffffffffffffffffffffffffffffffffffffffff021916908373ffffffffffffffffffffffffffffffffffffffff1602179055506129d76040805190810160405280600b81526020017f6574685f72696e6b656279000000000000000000000000000000000000000000815250612b71565b60019050612b6e565b60006129ff736f485c8bf6fc43ea212e93bbf8ce046c7f1cb4756126bf565b1115612a6357736f485c8bf6fc43ea212e93bbf8ce046c7f1cb475600160006101000a81548173ffffffffffffffffffffffffffffffffffffffff021916908373ffffffffffffffffffffffffffffffffffffffff16021790555060019050612b6e565b6000612a827320e12a1f859b3feae5fb2a0a32c18f5a65555bbf6126bf565b1115612ae6577320e12a1f859b3feae5fb2a0a32c18f5a65555bbf600160006101000a81548173ffffffffffffffffffffffffffffffffffffffff021916908373ffffffffffffffffffffffffffffffffffffffff16021790555060019050612b6e565b6000612b057351efaf4c8b3c9afbd5ab9f4bbc82784ab6ef8faa6126bf565b1115612b69577351efaf4c8b3c9afbd5ab9f4bbc82784ab6ef8faa600160006101000a81548173ffffffffffffffffffffffffffffffffffffffff021916908373ffffffffffffffffffffffffffffffffffffffff16021790555060019050612b6e565b600090505b90565b8060029080519060200190612b87929190612b8b565b5050565b828054600181600116156101000203166002900490600052602060002090601f016020900481019282601f10612bcc57805160ff1916838001178555612bfa565b82800160010185558215612bfa579182015b82811115612bf9578251825591602001919060010190612bde565b5b509050612c079190612c0b565b5090565b612c2d91905b80821115612c29576000816000905550600101612c11565b5090565b9056fea165627a7a7230582052a27dfbee86ef5e3e2041300d46082fb0ec74c9520b369d576fa0040ef647a20029",
  "source": "pragma solidity ^0.5.0;\r\n\r\nimport \"./Bet.sol\";\r\n\r\ncontract PuzzleBet is Bet {\r\n    address selfAddress;\r\n    string apiCallAddress;\r\n\r\n    constructor (address _owner, uint _amount, uint _maxParticipators, bool _open, bool _friendsOnly, uint _betLength ) public  {\r\n        //OAR = OraclizeAddrResolverI(0x6f485C8BF6fc43eA212E93BBF8ce046C7f1cb475);\r\n        require(_betLength > 0 && _maxParticipators <= 64 && _maxParticipators > 0,\"Failed to supply correct input\");\r\n        bet.creationTime = now;\r\n        bet.owner = _owner;\r\n        bet.betAmount = _amount;\r\n        bet.maxParticipators = _maxParticipators;\r\n        bet.open = _open;\r\n        bet.friendsOnly = _friendsOnly;\r\n        bet.finished = false;\r\n        bet.betLength = (1 minutes * _betLength);\r\n        selfAddress = address(this);\r\n        //xs();\r\n        bytes memory linkLeft = bytes(\"https://localhost:5001/api/SlidingPuzzleBet/GetWinners?addressPuzzleBet=\");\r\n        bytes memory linkRight = bytes(addressToString(address(this)));\r\n        apiCallAddress = strConcat(string(linkLeft), string(linkRight));\r\n        //emit TestEvent(addrToString(address(this)));\r\n    }\r\n\r\n    function addressToString(address _addr) public pure returns(string memory) {\r\n        bytes32 value = bytes32(uint256(_addr));\r\n        bytes memory alphabet = \"0123456789abcdef\";\r\n\r\n        bytes memory str = new bytes(42);\r\n        str[0] = '0';\r\n        str[1] = 'x';\r\n        for (uint i = 0; i < 20; i++) {\r\n            str[2+i*2] = alphabet[uint8(value[i + 12] >> 4)];\r\n            str[3+i*2] = alphabet[uint8(value[i + 12] & 0x0f)];\r\n        }\r\n        return string(str);\r\n    }\r\n\r\n    function xs() public payable {\r\n        oraclize_query(bet.betLength,\"URL\", apiCallAddress);\r\n    }\r\n\r\n    function __callback(bytes32 myid, string memory result) public {\r\n        if (msg.sender != oraclize_cbAddress()) revert();\r\n        emit TestEvent(result);\r\n        bytes memory byteString = bytes(result);\r\n        //Loop through result string\r\n        //Set winners and split by \"@\"\r\n        uint splitAmount = 0;\r\n        bytes memory winnerAddress = new bytes(42);\r\n        bool skipCharacter = false;\r\n        emit Length(byteString.length);\r\n        for(uint i = 0; i < byteString.length; i++){\r\n            if(skipCharacter == true){\r\n                skipCharacter = false;\r\n            }\r\n            else if(splitAmount < 42){\r\n                winnerAddress[splitAmount] = byteString[i];\r\n                splitAmount++;\r\n            }\r\n            if(splitAmount == 42){\r\n                AddWinners(parseAddr(string(winnerAddress)));\r\n                skipCharacter = true;\r\n                winnerAddress = new bytes(42);\r\n                splitAmount = 0;\r\n            }\r\n        }\r\n        emit Winners(bet.winners);\r\n    }\r\n\r\n    event TestEvent(string val);\r\n    event Winner(string val);\r\n    event Length(uint length);\r\n    event Address(address betAdr);\r\n    event Winners(address[] winners);\r\n\r\n    function TestAddWinners(string memory winners) public {\r\n        //emit TestEvent(winners);\r\n        bytes memory byteString = bytes(winners);\r\n        //Loop through result string\r\n        //Set winners and split by \"@\"\r\n        uint splitAmount = 0;\r\n        bytes memory winnerAddress = new bytes(42);\r\n        bool skipCharacter = false;\r\n        //emit Length(byteString.length);\r\n        for(uint i = 0; i < byteString.length; i++){\r\n            if(skipCharacter == true){\r\n                skipCharacter = false;\r\n            }\r\n            else if(splitAmount < 42){\r\n                winnerAddress[splitAmount] = byteString[i];\r\n                splitAmount++;\r\n            }\r\n            if(splitAmount == 42){\r\n                address winnerad = parseAddr(string(winnerAddress));\r\n                if(userAlreadyJoined(winnerad) && !userAlreadyWinner(winnerad)){\r\n                    AddWinners(winnerad);\r\n                }\r\n                skipCharacter = true;\r\n                winnerAddress = new bytes(42);\r\n                splitAmount = 0;\r\n            }\r\n        }\r\n        divideWinnings();\r\n        emit Winners(bet.winners);\r\n    }\r\n\r\n    function AddWinners(address winner) private {\r\n        bet.winners.push(winner);\r\n    }\r\n\r\n    function divideWinnings() private {\r\n        //There are winners\r\n        uint amountWinning = 0;\r\n        if(bet.winners.length > 0) {\r\n            uint256 balance = getStoredBalance();\r\n            while(balance % bet.winners.length != 0) {\r\n                balance = balance - 1;\r\n            }\r\n            amountWinning = balance / bet.winners.length;\r\n        }\r\n        for(uint i = 0;i<bet.winners.length;i++) {\r\n            pendingWithdrawals[bet.winners[i]] = amountWinning;\r\n        }\r\n    }\r\n}",
  "sourcePath": "C:\\Users\\Maru\\Documents\\School\\Project D\\Application\\Ethereum-Betting\\Ethereum Betting\\clientapp\\contracts\\PuzzleBet.sol",
  "compiler": {
    "name": "solc",
    "version": "0.5.0+commit.1d4f565a.Emscripten.clang"
  },
  "schemaVersion": "3.0.2",
  "updatedAt": "2019-06-14T11:09:36.761Z",
  "devdoc": {
    "methods": {}
  },
  "userdoc": {
    "methods": {}
  }
}