{
  "contractName": "PuzzleBet",
  "abi": [
    {
      "constant": true,
      "inputs": [],
      "name": "selfAddress",
      "outputs": [
        {
          "name": "",
          "type": "address"
        }
      ],
      "payable": false,
      "stateMutability": "view",
      "type": "function"
    },
    {
      "constant": true,
      "inputs": [],
      "name": "timeLeft",
      "outputs": [
        {
          "name": "",
          "type": "uint256"
        }
      ],
      "payable": false,
      "stateMutability": "view",
      "type": "function"
    },
    {
      "constant": true,
      "inputs": [],
      "name": "getStoredBalance",
      "outputs": [
        {
          "name": "",
          "type": "uint256"
        }
      ],
      "payable": false,
      "stateMutability": "view",
      "type": "function"
    },
    {
      "constant": true,
      "inputs": [],
      "name": "getBet",
      "outputs": [
        {
          "name": "",
          "type": "address"
        },
        {
          "name": "",
          "type": "uint256"
        },
        {
          "name": "",
          "type": "bool"
        },
        {
          "name": "",
          "type": "bool"
        },
        {
          "name": "",
          "type": "uint256"
        },
        {
          "name": "",
          "type": "address[]"
        },
        {
          "name": "",
          "type": "address[]"
        },
        {
          "name": "",
          "type": "bool"
        },
        {
          "name": "",
          "type": "uint256"
        },
        {
          "name": "",
          "type": "uint256"
        }
      ],
      "payable": false,
      "stateMutability": "view",
      "type": "function"
    },
    {
      "constant": false,
      "inputs": [],
      "name": "withdraw",
      "outputs": [],
      "payable": false,
      "stateMutability": "nonpayable",
      "type": "function"
    },
    {
      "constant": true,
      "inputs": [
        {
          "name": "userAddress",
          "type": "address"
        }
      ],
      "name": "userAlreadyJoined",
      "outputs": [
        {
          "name": "",
          "type": "bool"
        }
      ],
      "payable": false,
      "stateMutability": "view",
      "type": "function"
    },
    {
      "constant": true,
      "inputs": [],
      "name": "isOpen",
      "outputs": [
        {
          "name": "",
          "type": "bool"
        }
      ],
      "payable": false,
      "stateMutability": "view",
      "type": "function"
    },
    {
      "constant": true,
      "inputs": [],
      "name": "getOwner",
      "outputs": [
        {
          "name": "",
          "type": "address"
        }
      ],
      "payable": false,
      "stateMutability": "view",
      "type": "function"
    },
    {
      "constant": true,
      "inputs": [],
      "name": "friendsOnly",
      "outputs": [
        {
          "name": "",
          "type": "bool"
        }
      ],
      "payable": false,
      "stateMutability": "view",
      "type": "function"
    },
    {
      "constant": true,
      "inputs": [],
      "name": "checkJoined",
      "outputs": [
        {
          "name": "",
          "type": "bool"
        }
      ],
      "payable": false,
      "stateMutability": "view",
      "type": "function"
    },
    {
      "constant": false,
      "inputs": [],
      "name": "join",
      "outputs": [],
      "payable": true,
      "stateMutability": "payable",
      "type": "function"
    },
    {
      "constant": true,
      "inputs": [],
      "name": "finished",
      "outputs": [
        {
          "name": "",
          "type": "bool"
        }
      ],
      "payable": false,
      "stateMutability": "view",
      "type": "function"
    },
    {
      "constant": true,
      "inputs": [],
      "name": "getWinners",
      "outputs": [
        {
          "name": "",
          "type": "address[]"
        }
      ],
      "payable": false,
      "stateMutability": "view",
      "type": "function"
    },
    {
      "constant": true,
      "inputs": [],
      "name": "getCreationTime",
      "outputs": [
        {
          "name": "",
          "type": "uint256"
        }
      ],
      "payable": false,
      "stateMutability": "view",
      "type": "function"
    },
    {
      "constant": true,
      "inputs": [],
      "name": "getParticipators",
      "outputs": [
        {
          "name": "",
          "type": "address[]"
        }
      ],
      "payable": false,
      "stateMutability": "view",
      "type": "function"
    },
    {
      "constant": true,
      "inputs": [],
      "name": "getBetAmount",
      "outputs": [
        {
          "name": "",
          "type": "uint256"
        }
      ],
      "payable": false,
      "stateMutability": "view",
      "type": "function"
    },
    {
      "inputs": [
        {
          "name": "_owner",
          "type": "address"
        },
        {
          "name": "_amount",
          "type": "uint256"
        },
        {
          "name": "_maxParticipators",
          "type": "uint256"
        },
        {
          "name": "_open",
          "type": "bool"
        },
        {
          "name": "_friendsOnly",
          "type": "bool"
        },
        {
          "name": "_betLength",
          "type": "uint256"
        }
      ],
      "payable": false,
      "stateMutability": "nonpayable",
      "type": "constructor"
    },
    {
      "anonymous": false,
      "inputs": [
        {
          "indexed": false,
          "name": "val",
          "type": "string"
        }
      ],
      "name": "TestEvent",
      "type": "event"
    },
    {
      "anonymous": false,
      "inputs": [
        {
          "indexed": false,
          "name": "val",
          "type": "string"
        }
      ],
      "name": "Winner",
      "type": "event"
    },
    {
      "anonymous": false,
      "inputs": [
        {
          "indexed": false,
          "name": "length",
          "type": "uint256"
        }
      ],
      "name": "Length",
      "type": "event"
    },
    {
      "anonymous": false,
      "inputs": [
        {
          "indexed": false,
          "name": "betAdr",
          "type": "address"
        }
      ],
      "name": "Address",
      "type": "event"
    },
    {
      "anonymous": false,
      "inputs": [
        {
          "indexed": false,
          "name": "winners",
          "type": "address[]"
        }
      ],
      "name": "Winners",
      "type": "event"
    },
    {
      "anonymous": false,
      "inputs": [
        {
          "indexed": false,
          "name": "s",
          "type": "string"
        }
      ],
      "name": "Log",
      "type": "event"
    },
    {
      "anonymous": false,
      "inputs": [
        {
          "indexed": false,
          "name": "withdrawer",
          "type": "address"
        }
      ],
      "name": "WithdrawBy",
      "type": "event"
    },
    {
      "anonymous": false,
      "inputs": [
        {
          "indexed": false,
          "name": "console",
          "type": "string"
        }
      ],
      "name": "Test",
      "type": "event"
    },
    {
      "constant": true,
      "inputs": [
        {
          "name": "_addr",
          "type": "address"
        }
      ],
      "name": "addressToString",
      "outputs": [
        {
          "name": "",
          "type": "string"
        }
      ],
      "payable": false,
      "stateMutability": "pure",
      "type": "function"
    },
    {
      "constant": false,
      "inputs": [],
      "name": "xs",
      "outputs": [],
      "payable": true,
      "stateMutability": "payable",
      "type": "function"
    },
    {
      "constant": false,
      "inputs": [],
      "name": "getWinnersApi",
      "outputs": [],
      "payable": true,
      "stateMutability": "payable",
      "type": "function"
    },
    {
      "constant": false,
      "inputs": [
        {
          "name": "myid",
          "type": "bytes32"
        },
        {
          "name": "result",
          "type": "string"
        }
      ],
      "name": "__callback",
      "outputs": [],
      "payable": false,
      "stateMutability": "nonpayable",
      "type": "function"
    },
    {
      "constant": false,
      "inputs": [
        {
          "name": "_myid",
          "type": "bytes32"
        },
        {
          "name": "_result",
          "type": "string"
        },
        {
          "name": "_proof",
          "type": "bytes"
        }
      ],
      "name": "__callback",
      "outputs": [],
      "payable": false,
      "stateMutability": "nonpayable",
      "type": "function"
    },
    {
      "constant": false,
      "inputs": [
        {
          "name": "winners",
          "type": "string"
        }
      ],
      "name": "TestAddWinners",
      "outputs": [],
      "payable": false,
      "stateMutability": "nonpayable",
      "type": "function"
    }
  ],
  "bytecode": "0x60806040523480156200001157600080fd5b5060405160c080620048b7833981018060405260c08110156200003357600080fd5b81019080805190602001909291908051906020019092919080519060200190929190805190602001909291908051906020019092919080519060200190929190505050736f485c8bf6fc43ea212e93bbf8ce046c7f1cb475600160006101000a81548173ffffffffffffffffffffffffffffffffffffffff021916908373ffffffffffffffffffffffffffffffffffffffff160217905550600081118015620000dd575060408411155b8015620000ea5750600084115b15156200015f576040517f08c379a000000000000000000000000000000000000000000000000000000000815260040180806020018281038252601e8152602001807f4661696c656420746f20737570706c7920636f727265637420696e707574000081525060200191505060405180910390fd5b4260066000018190555085600660020160006101000a81548173ffffffffffffffffffffffffffffffffffffffff021916908373ffffffffffffffffffffffffffffffffffffffff1602179055508460066005018190555083600680018190555082600660070160006101000a81548160ff02191690831515021790555081600660070160016101000a81548160ff0219169083151502179055506000600660070160026101000a81548160ff02191690831515021790555080603c0260066001018190555030600e60006101000a81548173ffffffffffffffffffffffffffffffffffffffff021916908373ffffffffffffffffffffffffffffffffffffffff1602179055506060608060405190810160405280605b81526020017f68747470733a2f2f657468657265756d62657474696e672e617a75726577656281526020017f73697465732e6e65742f6170692f536c6964696e6750757a7a6c654265742f4781526020017f657457696e6e6572733f6164647265737350757a7a6c654265743d00000000008152509050606062000309306200034c640100000000026401000000009004565b905062000326828262000711640100000000026401000000009004565b600f90805190602001906200033d92919062000b99565b50505050505050505062000c48565b606060008273ffffffffffffffffffffffffffffffffffffffff16600102905060606040805190810160405280601081526020017f303132333435363738396162636465660000000000000000000000000000000081525090506060602a6040519080825280601f01601f191660200182016040528015620003dd5781602001600182028038833980820191505090505b5090507f30000000000000000000000000000000000000000000000000000000000000008160008151811015156200041157fe5b9060200101907effffffffffffffffffffffffffffffffffffffffffffffffffffffffffffff1916908160001a9053507f78000000000000000000000000000000000000000000000000000000000000008160018151811015156200047257fe5b9060200101907effffffffffffffffffffffffffffffffffffffffffffffffffffffffffffff1916908160001a90535060008090505b6014811015620007055782600485600c8401602081101515620004c757fe5b1a7f0100000000000000000000000000000000000000000000000000000000000000027effffffffffffffffffffffffffffffffffffffffffffffffffffffffffffff1916908060020a82049150507f0100000000000000000000000000000000000000000000000000000000000000900460ff168151811015156200054957fe5b9060200101517f010000000000000000000000000000000000000000000000000000000000000090047f0100000000000000000000000000000000000000000000000000000000000000028260028302600201815181101515620005a957fe5b9060200101907effffffffffffffffffffffffffffffffffffffffffffffffffffffffffffff1916908160001a90535082600f7f01000000000000000000000000000000000000000000000000000000000000000285600c84016020811015156200061057fe5b1a7f010000000000000000000000000000000000000000000000000000000000000002167f0100000000000000000000000000000000000000000000000000000000000000900460ff168151811015156200066757fe5b9060200101517f010000000000000000000000000000000000000000000000000000000000000090047f0100000000000000000000000000000000000000000000000000000000000000028260028302600301815181101515620006c757fe5b9060200101907effffffffffffffffffffffffffffffffffffffffffffffffffffffffffffff1916908160001a9053508080600101915050620004a8565b50809350505050919050565b606062000761838360206040519081016040528060008152506020604051908101604052806000815250602060405190810160405280600081525062000769640100000000026401000000009004565b905092915050565b6060808690506060869050606086905060608690506060869050606081518351855187518951010101016040519080825280601f01601f191660200182016040528015620007c65781602001600182028038833980820191505090505b509050606081905060008090506000809050600090505b885181101562000894578881815181101515620007f657fe5b9060200101517f010000000000000000000000000000000000000000000000000000000000000090047f01000000000000000000000000000000000000000000000000000000000000000283838060010194508151811015156200085657fe5b9060200101907effffffffffffffffffffffffffffffffffffffffffffffffffffffffffffff1916908160001a9053508080600101915050620007dd565b600090505b875181101562000950578781815181101515620008b257fe5b9060200101517f010000000000000000000000000000000000000000000000000000000000000090047f01000000000000000000000000000000000000000000000000000000000000000283838060010194508151811015156200091257fe5b9060200101907effffffffffffffffffffffffffffffffffffffffffffffffffffffffffffff1916908160001a905350808060010191505062000899565b600090505b865181101562000a0c5786818151811015156200096e57fe5b9060200101517f010000000000000000000000000000000000000000000000000000000000000090047f0100000000000000000000000000000000000000000000000000000000000000028383806001019450815181101515620009ce57fe5b9060200101907effffffffffffffffffffffffffffffffffffffffffffffffffffffffffffff1916908160001a905350808060010191505062000955565b600090505b855181101562000ac857858181518110151562000a2a57fe5b9060200101517f010000000000000000000000000000000000000000000000000000000000000090047f010000000000000000000000000000000000000000000000000000000000000002838380600101945081518110151562000a8a57fe5b9060200101907effffffffffffffffffffffffffffffffffffffffffffffffffffffffffffff1916908160001a905350808060010191505062000a11565b600090505b845181101562000b8457848181518110151562000ae657fe5b9060200101517f010000000000000000000000000000000000000000000000000000000000000090047f010000000000000000000000000000000000000000000000000000000000000002838380600101945081518110151562000b4657fe5b9060200101907effffffffffffffffffffffffffffffffffffffffffffffffffffffffffffff1916908160001a905350808060010191505062000acd565b82995050505050505050505095945050505050565b828054600181600116156101000203166002900490600052602060002090601f016020900481019282601f1062000bdc57805160ff191683800117855562000c0d565b8280016001018555821562000c0d579182015b8281111562000c0c57825182559160200191906001019062000bef565b5b50905062000c1c919062000c20565b5090565b62000c4591905b8082111562000c4157600081600090555060010162000c27565b5090565b90565b613c5f8062000c586000396000f3fe608060405260043610610128576000357c0100000000000000000000000000000000000000000000000000000000900463ffffffff16806312e905b01461012d5780631300a6d1146101845780631ac9d7f8146101af5780631e6be911146101b957806320835e8c146101e457806327dc297e1461030857806338bbfa50146103da5780633ccfd60b146105435780633d0dbf2f1461055a57806347535d7b146105c3578063578a2b32146105f25780635e57966d146105fc5780636bba01a0146106c6578063893d20e81461078e57806389b5af53146107e55780639d26c6f214610814578063b688a36314610843578063bef4876b1461084d578063df15c37e1461087c578063e6519a35146108e8578063f8a0b69514610913578063fde41e291461097f575b600080fd5b34801561013957600080fd5b506101426109aa565b604051808273ffffffffffffffffffffffffffffffffffffffff1673ffffffffffffffffffffffffffffffffffffffff16815260200191505060405180910390f35b34801561019057600080fd5b506101996109d0565b6040518082815260200191505060405180910390f35b6101b76109f2565b005b3480156101c557600080fd5b506101ce610c69565b6040518082815260200191505060405180910390f35b3480156101f057600080fd5b506101f9610c88565b604051808b73ffffffffffffffffffffffffffffffffffffffff1673ffffffffffffffffffffffffffffffffffffffff1681526020018a81526020018915151515815260200188151515158152602001878152602001806020018060200186151515158152602001858152602001848152602001838103835288818151815260200191508051906020019060200280838360005b838110156102a857808201518184015260208101905061028d565b50505050905001838103825287818151815260200191508051906020019060200280838360005b838110156102ea5780820151818401526020810190506102cf565b505050509050019c5050505050505050505050505060405180910390f35b34801561031457600080fd5b506103d86004803603604081101561032b57600080fd5b81019080803590602001909291908035906020019064010000000081111561035257600080fd5b82018360208201111561036457600080fd5b8035906020019184600183028401116401000000008311171561038657600080fd5b91908080601f016020809104026020016040519081016040528093929190818152602001838380828437600081840152601f19601f820116905080830192505050505050509192919290505050610e48565b005b3480156103e657600080fd5b50610541600480360360608110156103fd57600080fd5b81019080803590602001909291908035906020019064010000000081111561042457600080fd5b82018360208201111561043657600080fd5b8035906020019184600183028401116401000000008311171561045857600080fd5b91908080601f016020809104026020016040519081016040528093929190818152602001838380828437600081840152601f19601f820116905080830192505050505050509192919290803590602001906401000000008111156104bb57600080fd5b8201836020820111156104cd57600080fd5b803590602001918460018302840111640100000000831117156104ef57600080fd5b91908080601f016020809104026020016040519081016040528093929190818152602001838380828437600081840152601f19601f82011690508083019250505050505050919291929050505061119b565b005b34801561054f57600080fd5b506105586111a0565b005b34801561056657600080fd5b506105a96004803603602081101561057d57600080fd5b81019080803573ffffffffffffffffffffffffffffffffffffffff1690602001909291905050506112d6565b604051808215151515815260200191505060405180910390f35b3480156105cf57600080fd5b506105d8611380565b604051808215151515815260200191505060405180910390f35b6105fa61139a565b005b34801561060857600080fd5b5061064b6004803603602081101561061f57600080fd5b81019080803573ffffffffffffffffffffffffffffffffffffffff16906020019092919050505061147c565b6040518080602001828103825283818151815260200191508051906020019080838360005b8381101561068b578082015181840152602081019050610670565b50505050905090810190601f1680156106b85780820380516001836020036101000a031916815260200191505b509250505060405180910390f35b3480156106d257600080fd5b5061078c600480360360208110156106e957600080fd5b810190808035906020019064010000000081111561070657600080fd5b82018360208201111561071857600080fd5b8035906020019184600183028401116401000000008311171561073a57600080fd5b91908080601f016020809104026020016040519081016040528093929190818152602001838380828437600081840152601f19601f820116905080830192505050505050509192919290505050611836565b005b34801561079a57600080fd5b506107a3611a9a565b604051808273ffffffffffffffffffffffffffffffffffffffff1673ffffffffffffffffffffffffffffffffffffffff16815260200191505060405180910390f35b3480156107f157600080fd5b506107fa611ac7565b604051808215151515815260200191505060405180910390f35b34801561082057600080fd5b50610829611bcf565b604051808215151515815260200191505060405180910390f35b61084b611bdf565b005b34801561085957600080fd5b50610862611de2565b604051808215151515815260200191505060405180910390f35b34801561088857600080fd5b50610891611dfc565b6040518080602001828103825283818151815260200191508051906020019060200280838360005b838110156108d45780820151818401526020810190506108b9565b505050509050019250505060405180910390f35b3480156108f457600080fd5b506108fd611e8d565b6040518082815260200191505060405180910390f35b34801561091f57600080fd5b50610928611e9a565b6040518080602001828103825283818151815260200191508051906020019060200280838360005b8381101561096b578082015181840152602081019050610950565b505050509050019250505060405180910390f35b34801561098b57600080fd5b50610994611f2b565b6040518082815260200191505060405180910390f35b600e60009054906101000a900473ffffffffffffffffffffffffffffffffffffffff1681565b6000603c6006600101540242600660000154038115156109ec57fe5b04905090565b6109ff63ee6b2800611f38565b7fcf34ef537ac33ee1ac626ca1587a0a7e8e51561e5514f8cb36afa1c5102b3bab60405180806020018281038252600a8152602001807f63616c6c6564206170690000000000000000000000000000000000000000000081525060200191505060405180910390a17fcf34ef537ac33ee1ac626ca1587a0a7e8e51561e5514f8cb36afa1c5102b3bab600f6040518080602001828103825283818154600181600116156101000203166002900481526020019150805460018160011615610100020316600290048015610b135780601f10610ae857610100808354040283529160200191610b13565b820191906000526020600020905b815481529060010190602001808311610af657829003601f168201915b50509250505060405180910390a1610bfe6040805190810160405280600381526020017f55524c0000000000000000000000000000000000000000000000000000000000815250600f8054600181600116156101000203166002900480601f016020809104026020016040519081016040528092919081815260200182805460018160011615610100020316600290048015610bf05780601f10610bc557610100808354040283529160200191610bf0565b820191906000526020600020905b815481529060010190602001808311610bd357829003601f168201915b5050505050624c4b40612292565b507fcf34ef537ac33ee1ac626ca1587a0a7e8e51561e5514f8cb36afa1c5102b3bab6040518080602001828103825260128152602001807f66696e6973682063616c6c696e6720617069000000000000000000000000000081525060200191505060405180910390a1565b60003073ffffffffffffffffffffffffffffffffffffffff1631905090565b60008060008060006060806000806000600660020160009054906101000a900473ffffffffffffffffffffffffffffffffffffffff16600660050154600660070160019054906101000a900460ff16600660070160009054906101000a900460ff16600680015460066003016006600401600660070160029054906101000a900460ff1660066001015460066000015484805480602002602001604051908101604052809291908181526020018280548015610d9957602002820191906000526020600020905b8160009054906101000a900473ffffffffffffffffffffffffffffffffffffffff1673ffffffffffffffffffffffffffffffffffffffff1681526020019060010190808311610d4f575b5050505050945083805480602002602001604051908101604052809291908181526020018280548015610e2157602002820191906000526020600020905b8160009054906101000a900473ffffffffffffffffffffffffffffffffffffffff1673ffffffffffffffffffffffffffffffffffffffff1681526020019060010190808311610dd7575b50505050509350995099509950995099509950995099509950995090919293949596979899565b610e50612859565b73ffffffffffffffffffffffffffffffffffffffff163373ffffffffffffffffffffffffffffffffffffffff16141515610e8957600080fd5b7fe75028ff36bb6473da3731a30e1aeeae9988e2415dba2c4e91e0357955065fba816040518080602001828103825283818151815260200191508051906020019080838360005b83811015610eeb578082015181840152602081019050610ed0565b50505050905090810190601f168015610f185780820380516001836020036101000a031916815260200191505b509250505060405180910390a1606081905060008090506060602a6040519080825280601f01601f191660200182016040528015610f655781602001600182028038833980820191505090505b50905060008090507f090488eede6071b3dc8bd6f7821d5d6d147602c20be98ed1250b52537184572e84516040518082815260200191505060405180910390a160008090505b84518110156110db57600115158215151415610fca5760009150611074565b602a841015611073578481815181101515610fe157fe5b9060200101517f010000000000000000000000000000000000000000000000000000000000000090047f010000000000000000000000000000000000000000000000000000000000000002838581518110151561103a57fe5b9060200101907effffffffffffffffffffffffffffffffffffffffffffffffffffffffffffff1916908160001a90535083806001019450505b5b602a8414156110ce5761108e61108984612bcc565b612ee9565b60019150602a6040519080825280601f01601f1916602001820160405280156110c65781602001600182028038833980820191505090505b509250600093505b8080600101915050610fab565b506110e4612f55565b7f269ee29ef3602a66e11783821e5f60cb92750b4c4c9294864c8c450b3bf6a43660066004016040518080602001828103825283818154815260200191508054801561118557602002820191906000526020600020905b8160009054906101000a900473ffffffffffffffffffffffffffffffffffffffff1673ffffffffffffffffffffffffffffffffffffffff168152602001906001019080831161113b575b50509250505060405180910390a1505050505050565b505050565b7fdfe4e585299ae56dce99e64d027d30c281c9f2c79bb347cd9064db7d3933609033604051808273ffffffffffffffffffffffffffffffffffffffff1673ffffffffffffffffffffffffffffffffffffffff16815260200191505060405180910390a16000600560003373ffffffffffffffffffffffffffffffffffffffff1673ffffffffffffffffffffffffffffffffffffffff1681526020019081526020016000205490506000600560003373ffffffffffffffffffffffffffffffffffffffff1673ffffffffffffffffffffffffffffffffffffffff168152602001908152602001600020819055503373ffffffffffffffffffffffffffffffffffffffff166108fc829081150290604051600060405180830381858888f193505050501580156112d2573d6000803e3d6000fd5b5050565b600080600090505b600660030180549050811015611375578273ffffffffffffffffffffffffffffffffffffffff1660066003018281548110151561131757fe5b9060005260206000200160009054906101000a900473ffffffffffffffffffffffffffffffffffffffff1673ffffffffffffffffffffffffffffffffffffffff16141561136857600191505061137b565b80806001019150506112de565b50600090505b919050565b6000600660070160009054906101000a900460ff16905090565b6114796006600101546040805190810160405280600381526020017f55524c0000000000000000000000000000000000000000000000000000000000815250600f8054600181600116156101000203166002900480601f01602080910402602001604051908101604052809291908181526020018280546001816001161561010002031660029004801561146f5780601f106114445761010080835404028352916020019161146f565b820191906000526020600020905b81548152906001019060200180831161145257829003601f168201915b505050505061305f565b50565b606060008273ffffffffffffffffffffffffffffffffffffffff16600102905060606040805190810160405280601081526020017f303132333435363738396162636465660000000000000000000000000000000081525090506060602a6040519080825280601f01601f19166020018201604052801561150c5781602001600182028038833980820191505090505b5090507f300000000000000000000000000000000000000000000000000000000000000081600081518110151561153f57fe5b9060200101907effffffffffffffffffffffffffffffffffffffffffffffffffffffffffffff1916908160001a9053507f780000000000000000000000000000000000000000000000000000000000000081600181518110151561159f57fe5b9060200101907effffffffffffffffffffffffffffffffffffffffffffffffffffffffffffff1916908160001a90535060008090505b601481101561182a5782600485600c84016020811015156115f257fe5b1a7f0100000000000000000000000000000000000000000000000000000000000000027effffffffffffffffffffffffffffffffffffffffffffffffffffffffffffff1916908060020a82049150507f0100000000000000000000000000000000000000000000000000000000000000900460ff1681518110151561167357fe5b9060200101517f010000000000000000000000000000000000000000000000000000000000000090047f01000000000000000000000000000000000000000000000000000000000000000282600283026002018151811015156116d257fe5b9060200101907effffffffffffffffffffffffffffffffffffffffffffffffffffffffffffff1916908160001a90535082600f7f01000000000000000000000000000000000000000000000000000000000000000285600c840160208110151561173857fe5b1a7f010000000000000000000000000000000000000000000000000000000000000002167f0100000000000000000000000000000000000000000000000000000000000000900460ff1681518110151561178e57fe5b9060200101517f010000000000000000000000000000000000000000000000000000000000000090047f01000000000000000000000000000000000000000000000000000000000000000282600283026003018151811015156117ed57fe5b9060200101907effffffffffffffffffffffffffffffffffffffffffffffffffffffffffffff1916908160001a90535080806001019150506115d5565b50809350505050919050565b606081905060008090506060602a6040519080825280601f01601f1916602001820160405280156118765781602001600182028038833980820191505090505b509050600080905060008090505b84518110156119db576001151582151514156118a3576000915061194d565b602a84101561194c5784818151811015156118ba57fe5b9060200101517f010000000000000000000000000000000000000000000000000000000000000090047f010000000000000000000000000000000000000000000000000000000000000002838581518110151561191357fe5b9060200101907effffffffffffffffffffffffffffffffffffffffffffffffffffffffffffff1916908160001a90535083806001019450505b5b602a8414156119ce57600061196184612bcc565b905061196c816112d6565b801561197e575061197c81613618565b155b1561198d5761198c81612ee9565b5b60019250602a6040519080825280601f01601f1916602001820160405280156119c55781602001600182028038833980820191505090505b50935060009450505b8080600101915050611884565b506119e4612f55565b7f269ee29ef3602a66e11783821e5f60cb92750b4c4c9294864c8c450b3bf6a436600660040160405180806020018281038252838181548152602001915080548015611a8557602002820191906000526020600020905b8160009054906101000a900473ffffffffffffffffffffffffffffffffffffffff1673ffffffffffffffffffffffffffffffffffffffff1681526020019060010190808311611a3b575b50509250505060405180910390a15050505050565b6000600660020160009054906101000a900473ffffffffffffffffffffffffffffffffffffffff16905090565b6000600660020160009054906101000a900473ffffffffffffffffffffffffffffffffffffffff1673ffffffffffffffffffffffffffffffffffffffff163373ffffffffffffffffffffffffffffffffffffffff16141515611bb7576040517f08c379a00000000000000000000000000000000000000000000000000000000081526004018080602001828103825260228152602001807f4f6e6c79206f776e65722063616e2063616c6c20746869732066756e6374696f81526020017f6e2e00000000000000000000000000000000000000000000000000000000000081525060400191505060405180910390fd5b600660070160019054906101000a900460ff16905090565b6000611bda336112d6565b905090565b670de0b6b3a76400006006600501540234141515611c65576040517f08c379a000000000000000000000000000000000000000000000000000000000815260040180806020018281038252600f8152602001807f52657175697265732045746865722e000000000000000000000000000000000081525060200191505060405180910390fd5b60011515600660070160009054906101000a900460ff161515141515611cf3576040517f08c379a000000000000000000000000000000000000000000000000000000000815260040180806020018281038252600f8152602001807f426574206973206e6f74206f70656e000000000000000000000000000000000081525060200191505060405180910390fd5b60001515611d00336112d6565b1515141515611d77576040517f08c379a00000000000000000000000000000000000000000000000000000000081526004018080602001828103825260208152602001807f557365722068617320616c7265616479206a6f696e656420746869732062657481525060200191505060405180910390fd5b60066003013390806001815401808255809150509060018203906000526020600020016000909192909190916101000a81548173ffffffffffffffffffffffffffffffffffffffff021916908373ffffffffffffffffffffffffffffffffffffffff16021790555050565b6000600660070160029054906101000a900460ff16905090565b60606006600401805480602002602001604051908101604052809291908181526020018280548015611e8357602002820191906000526020600020905b8160009054906101000a900473ffffffffffffffffffffffffffffffffffffffff1673ffffffffffffffffffffffffffffffffffffffff1681526020019060010190808311611e39575b5050505050905090565b6000600660000154905090565b60606006600301805480602002602001604051908101604052809291908181526020018280548015611f2157602002820191906000526020600020905b8160009054906101000a900473ffffffffffffffffffffffffffffffffffffffff1673ffffffffffffffffffffffffffffffffffffffff1681526020019060010190808311611ed7575b5050505050905090565b6000600660050154905090565b600073ffffffffffffffffffffffffffffffffffffffff16600160009054906101000a900473ffffffffffffffffffffffffffffffffffffffff1673ffffffffffffffffffffffffffffffffffffffff161480611fbf57506000611fbd600160009054906101000a900473ffffffffffffffffffffffffffffffffffffffff166136c2565b145b15611fd057611fce60006136cd565b505b600160009054906101000a900473ffffffffffffffffffffffffffffffffffffffff1673ffffffffffffffffffffffffffffffffffffffff166338cc48316040518163ffffffff167c0100000000000000000000000000000000000000000000000000000000028152600401602060405180830381600087803b15801561205657600080fd5b505af115801561206a573d6000803e3d6000fd5b505050506040513d602081101561208057600080fd5b810190808051906020019092919050505073ffffffffffffffffffffffffffffffffffffffff166000809054906101000a900473ffffffffffffffffffffffffffffffffffffffff1673ffffffffffffffffffffffffffffffffffffffff161415156121e757600160009054906101000a900473ffffffffffffffffffffffffffffffffffffffff1673ffffffffffffffffffffffffffffffffffffffff166338cc48316040518163ffffffff167c0100000000000000000000000000000000000000000000000000000000028152600401602060405180830381600087803b15801561216c57600080fd5b505af1158015612180573d6000803e3d6000fd5b505050506040513d602081101561219657600080fd5b81019080805190602001909291905050506000806101000a81548173ffffffffffffffffffffffffffffffffffffffff021916908373ffffffffffffffffffffffffffffffffffffffff1602179055505b6000809054906101000a900473ffffffffffffffffffffffffffffffffffffffff1673ffffffffffffffffffffffffffffffffffffffff1663ca6ad1e4826040518263ffffffff167c010000000000000000000000000000000000000000000000000000000002815260040180828152602001915050600060405180830381600087803b15801561227757600080fd5b505af115801561228b573d6000803e3d6000fd5b5050505050565b60008073ffffffffffffffffffffffffffffffffffffffff16600160009054906101000a900473ffffffffffffffffffffffffffffffffffffffff1673ffffffffffffffffffffffffffffffffffffffff16148061231a57506000612318600160009054906101000a900473ffffffffffffffffffffffffffffffffffffffff166136c2565b145b1561232b5761232960006136cd565b505b600160009054906101000a900473ffffffffffffffffffffffffffffffffffffffff1673ffffffffffffffffffffffffffffffffffffffff166338cc48316040518163ffffffff167c0100000000000000000000000000000000000000000000000000000000028152600401602060405180830381600087803b1580156123b157600080fd5b505af11580156123c5573d6000803e3d6000fd5b505050506040513d60208110156123db57600080fd5b810190808051906020019092919050505073ffffffffffffffffffffffffffffffffffffffff166000809054906101000a900473ffffffffffffffffffffffffffffffffffffffff1673ffffffffffffffffffffffffffffffffffffffff1614151561254257600160009054906101000a900473ffffffffffffffffffffffffffffffffffffffff1673ffffffffffffffffffffffffffffffffffffffff166338cc48316040518163ffffffff167c0100000000000000000000000000000000000000000000000000000000028152600401602060405180830381600087803b1580156124c757600080fd5b505af11580156124db573d6000803e3d6000fd5b505050506040513d60208110156124f157600080fd5b81019080805190602001909291905050506000806101000a81548173ffffffffffffffffffffffffffffffffffffffff021916908373ffffffffffffffffffffffffffffffffffffffff1602179055505b60008060009054906101000a900473ffffffffffffffffffffffffffffffffffffffff1673ffffffffffffffffffffffffffffffffffffffff16632ef3accc86856040518363ffffffff167c01000000000000000000000000000000000000000000000000000000000281526004018080602001838152602001828103825284818151815260200191508051906020019080838360005b838110156125f45780820151818401526020810190506125d9565b50505050905090810190601f1680156126215780820380516001836020036101000a031916815260200191505b509350505050602060405180830381600087803b15801561264157600080fd5b505af1158015612655573d6000803e3d6000fd5b505050506040513d602081101561266b57600080fd5b81019080805190602001909291905050509050823a02670de0b6b3a76400000181111561269f576000600102915050612852565b6000809054906101000a900473ffffffffffffffffffffffffffffffffffffffff1673ffffffffffffffffffffffffffffffffffffffff1663c51be90f8260008888886040518663ffffffff167c0100000000000000000000000000000000000000000000000000000000028152600401808581526020018060200180602001848152602001838103835286818151815260200191508051906020019080838360005b8381101561275d578082015181840152602081019050612742565b50505050905090810190601f16801561278a5780820380516001836020036101000a031916815260200191505b50838103825285818151815260200191508051906020019080838360005b838110156127c35780820151818401526020810190506127a8565b50505050905090810190601f1680156127f05780820380516001836020036101000a031916815260200191505b5096505050505050506020604051808303818588803b15801561281257600080fd5b505af1158015612826573d6000803e3d6000fd5b50505050506040513d602081101561283d57600080fd5b81019080805190602001909291905050509150505b9392505050565b60008073ffffffffffffffffffffffffffffffffffffffff16600160009054906101000a900473ffffffffffffffffffffffffffffffffffffffff1673ffffffffffffffffffffffffffffffffffffffff1614806128e1575060006128df600160009054906101000a900473ffffffffffffffffffffffffffffffffffffffff166136c2565b145b156128f2576128f060006136cd565b505b600160009054906101000a900473ffffffffffffffffffffffffffffffffffffffff1673ffffffffffffffffffffffffffffffffffffffff166338cc48316040518163ffffffff167c0100000000000000000000000000000000000000000000000000000000028152600401602060405180830381600087803b15801561297857600080fd5b505af115801561298c573d6000803e3d6000fd5b505050506040513d60208110156129a257600080fd5b810190808051906020019092919050505073ffffffffffffffffffffffffffffffffffffffff166000809054906101000a900473ffffffffffffffffffffffffffffffffffffffff1673ffffffffffffffffffffffffffffffffffffffff16141515612b0957600160009054906101000a900473ffffffffffffffffffffffffffffffffffffffff1673ffffffffffffffffffffffffffffffffffffffff166338cc48316040518163ffffffff167c0100000000000000000000000000000000000000000000000000000000028152600401602060405180830381600087803b158015612a8e57600080fd5b505af1158015612aa2573d6000803e3d6000fd5b505050506040513d6020811015612ab857600080fd5b81019080805190602001909291905050506000806101000a81548173ffffffffffffffffffffffffffffffffffffffff021916908373ffffffffffffffffffffffffffffffffffffffff1602179055505b6000809054906101000a900473ffffffffffffffffffffffffffffffffffffffff1673ffffffffffffffffffffffffffffffffffffffff1663c281d19e6040518163ffffffff167c010000000000000000000000000000000000000000000000000000000002815260040160206040518083038186803b158015612b8c57600080fd5b505afa158015612ba0573d6000803e3d6000fd5b505050506040513d6020811015612bb657600080fd5b8101908080519060200190929190505050905090565b6000606082905060008090506000806000600290505b602a811015612edc57610100840293508481815181101515612c0057fe5b9060200101517f010000000000000000000000000000000000000000000000000000000000000090047f0100000000000000000000000000000000000000000000000000000000000000027f0100000000000000000000000000000000000000000000000000000000000000900460ff1692508460018201815181101515612c8457fe5b9060200101517f010000000000000000000000000000000000000000000000000000000000000090047f0100000000000000000000000000000000000000000000000000000000000000027f0100000000000000000000000000000000000000000000000000000000000000900460ff16915060618373ffffffffffffffffffffffffffffffffffffffff1610158015612d35575060668373ffffffffffffffffffffffffffffffffffffffff1611155b15612d4557605783039250612ddf565b60418373ffffffffffffffffffffffffffffffffffffffff1610158015612d83575060468373ffffffffffffffffffffffffffffffffffffffff1611155b15612d9357603783039250612dde565b60308373ffffffffffffffffffffffffffffffffffffffff1610158015612dd1575060398373ffffffffffffffffffffffffffffffffffffffff1611155b15612ddd576030830392505b5b5b60618273ffffffffffffffffffffffffffffffffffffffff1610158015612e1d575060668273ffffffffffffffffffffffffffffffffffffffff1611155b15612e2d57605782039150612ec7565b60418273ffffffffffffffffffffffffffffffffffffffff1610158015612e6b575060468273ffffffffffffffffffffffffffffffffffffffff1611155b15612e7b57603782039150612ec6565b60308273ffffffffffffffffffffffffffffffffffffffff1610158015612eb9575060398273ffffffffffffffffffffffffffffffffffffffff1611155b15612ec5576030820391505b5b5b81601084020184019350600281019050612be2565b5082945050505050919050565b60066004018190806001815401808255809150509060018203906000526020600020016000909192909190916101000a81548173ffffffffffffffffffffffffffffffffffffffff021916908373ffffffffffffffffffffffffffffffffffffffff1602179055505050565b600080905060006006600401805490501115612fb8576000612f75610c69565b90505b600060066004018054905082811515612f8d57fe5b06141515612fa057600181039050612f78565b60066004018054905081811515612fb357fe5b049150505b60008090505b60066004018054905081101561305b578160056000600660040184815481101515612fe557fe5b9060005260206000200160009054906101000a900473ffffffffffffffffffffffffffffffffffffffff1673ffffffffffffffffffffffffffffffffffffffff1673ffffffffffffffffffffffffffffffffffffffff168152602001908152602001600020819055508080600101915050612fbe565b5050565b60008073ffffffffffffffffffffffffffffffffffffffff16600160009054906101000a900473ffffffffffffffffffffffffffffffffffffffff1673ffffffffffffffffffffffffffffffffffffffff1614806130e7575060006130e5600160009054906101000a900473ffffffffffffffffffffffffffffffffffffffff166136c2565b145b156130f8576130f660006136cd565b505b600160009054906101000a900473ffffffffffffffffffffffffffffffffffffffff1673ffffffffffffffffffffffffffffffffffffffff166338cc48316040518163ffffffff167c0100000000000000000000000000000000000000000000000000000000028152600401602060405180830381600087803b15801561317e57600080fd5b505af1158015613192573d6000803e3d6000fd5b505050506040513d60208110156131a857600080fd5b810190808051906020019092919050505073ffffffffffffffffffffffffffffffffffffffff166000809054906101000a900473ffffffffffffffffffffffffffffffffffffffff1673ffffffffffffffffffffffffffffffffffffffff1614151561330f57600160009054906101000a900473ffffffffffffffffffffffffffffffffffffffff1673ffffffffffffffffffffffffffffffffffffffff166338cc48316040518163ffffffff167c0100000000000000000000000000000000000000000000000000000000028152600401602060405180830381600087803b15801561329457600080fd5b505af11580156132a8573d6000803e3d6000fd5b505050506040513d60208110156132be57600080fd5b81019080805190602001909291905050506000806101000a81548173ffffffffffffffffffffffffffffffffffffffff021916908373ffffffffffffffffffffffffffffffffffffffff1602179055505b60008060009054906101000a900473ffffffffffffffffffffffffffffffffffffffff1673ffffffffffffffffffffffffffffffffffffffff1663524f3889856040518263ffffffff167c01000000000000000000000000000000000000000000000000000000000281526004018080602001828103825283818151815260200191508051906020019080838360005b838110156133ba57808201518184015260208101905061339f565b50505050905090810190601f1680156133e75780820380516001836020036101000a031916815260200191505b5092505050602060405180830381600087803b15801561340657600080fd5b505af115801561341a573d6000803e3d6000fd5b505050506040513d602081101561343057600080fd5b8101908080519060200190929190505050905062030d403a02670de0b6b3a764000001811115613467576000600102915050613611565b6000809054906101000a900473ffffffffffffffffffffffffffffffffffffffff1673ffffffffffffffffffffffffffffffffffffffff1663adf59f99828787876040518563ffffffff167c0100000000000000000000000000000000000000000000000000000000028152600401808481526020018060200180602001838103835285818151815260200191508051906020019080838360005b8381101561351d578082015181840152602081019050613502565b50505050905090810190601f16801561354a5780820380516001836020036101000a031916815260200191505b50838103825284818151815260200191508051906020019080838360005b83811015613583578082015181840152602081019050613568565b50505050905090810190601f1680156135b05780820380516001836020036101000a031916815260200191505b50955050505050506020604051808303818588803b1580156135d157600080fd5b505af11580156135e5573d6000803e3d6000fd5b50505050506040513d60208110156135fc57600080fd5b81019080805190602001909291905050509150505b9392505050565b600080600090505b6006600401805490508110156136b7578273ffffffffffffffffffffffffffffffffffffffff1660066004018281548110151561365957fe5b9060005260206000200160009054906101000a900473ffffffffffffffffffffffffffffffffffffffff1673ffffffffffffffffffffffffffffffffffffffff1614156136aa5760019150506136bd565b8080600101915050613620565b50600090505b919050565b6000813b9050919050565b60006136d76136de565b9050919050565b6000806136fe731d3b2638a7cc9f2cb3d298a3da7a90b67e5506ed6136c2565b11156137a057731d3b2638a7cc9f2cb3d298a3da7a90b67e5506ed600160006101000a81548173ffffffffffffffffffffffffffffffffffffffff021916908373ffffffffffffffffffffffffffffffffffffffff1602179055506137976040805190810160405280600b81526020017f6574685f6d61696e6e6574000000000000000000000000000000000000000000815250613b74565b60019050613b71565b60006137bf73c03a2615d5efaf5f49f60b7bb6583eaec212fdf16136c2565b11156138615773c03a2615d5efaf5f49f60b7bb6583eaec212fdf1600160006101000a81548173ffffffffffffffffffffffffffffffffffffffff021916908373ffffffffffffffffffffffffffffffffffffffff1602179055506138586040805190810160405280600c81526020017f6574685f726f707374656e330000000000000000000000000000000000000000815250613b74565b60019050613b71565b600061388073b7a07bcf2ba2f2703b24c0691b5278999c59ac7e6136c2565b11156139225773b7a07bcf2ba2f2703b24c0691b5278999c59ac7e600160006101000a81548173ffffffffffffffffffffffffffffffffffffffff021916908373ffffffffffffffffffffffffffffffffffffffff1602179055506139196040805190810160405280600981526020017f6574685f6b6f76616e0000000000000000000000000000000000000000000000815250613b74565b60019050613b71565b600061394173146500cfd35b22e4a392fe0adc06de1a1368ed486136c2565b11156139e35773146500cfd35b22e4a392fe0adc06de1a1368ed48600160006101000a81548173ffffffffffffffffffffffffffffffffffffffff021916908373ffffffffffffffffffffffffffffffffffffffff1602179055506139da6040805190810160405280600b81526020017f6574685f72696e6b656279000000000000000000000000000000000000000000815250613b74565b60019050613b71565b6000613a02736f485c8bf6fc43ea212e93bbf8ce046c7f1cb4756136c2565b1115613a6657736f485c8bf6fc43ea212e93bbf8ce046c7f1cb475600160006101000a81548173ffffffffffffffffffffffffffffffffffffffff021916908373ffffffffffffffffffffffffffffffffffffffff16021790555060019050613b71565b6000613a857320e12a1f859b3feae5fb2a0a32c18f5a65555bbf6136c2565b1115613ae9577320e12a1f859b3feae5fb2a0a32c18f5a65555bbf600160006101000a81548173ffffffffffffffffffffffffffffffffffffffff021916908373ffffffffffffffffffffffffffffffffffffffff16021790555060019050613b71565b6000613b087351efaf4c8b3c9afbd5ab9f4bbc82784ab6ef8faa6136c2565b1115613b6c577351efaf4c8b3c9afbd5ab9f4bbc82784ab6ef8faa600160006101000a81548173ffffffffffffffffffffffffffffffffffffffff021916908373ffffffffffffffffffffffffffffffffffffffff16021790555060019050613b71565b600090505b90565b8060029080519060200190613b8a929190613b8e565b5050565b828054600181600116156101000203166002900490600052602060002090601f016020900481019282601f10613bcf57805160ff1916838001178555613bfd565b82800160010185558215613bfd579182015b82811115613bfc578251825591602001919060010190613be1565b5b509050613c0a9190613c0e565b5090565b613c3091905b80821115613c2c576000816000905550600101613c14565b5090565b9056fea165627a7a723058203d0cfa92c2eb2ea73ba3bf5fc6f4d5907877920f78d7ddf42e9914fc75ef5c210029",
  "source": "pragma solidity ^0.5.0;\r\n\r\nimport \"./Bet.sol\";\r\n\r\ncontract PuzzleBet is Bet {\r\n    address public selfAddress;\r\n    string apiCallAddress;\r\n\r\n    constructor (address _owner, uint _amount, uint _maxParticipators, bool _open, bool _friendsOnly, uint _betLength ) public  {\r\n        OAR = OraclizeAddrResolverI(0x6f485C8BF6fc43eA212E93BBF8ce046C7f1cb475);        \r\n        require(_betLength > 0 && _maxParticipators <= 64 && _maxParticipators > 0,\"Failed to supply correct input\");\r\n        bet.creationTime = now;\r\n        bet.owner = _owner;\r\n        bet.betAmount = _amount;\r\n        bet.maxParticipators = _maxParticipators;\r\n        bet.open = _open;\r\n        bet.friendsOnly = _friendsOnly;\r\n        bet.finished = false;\r\n        bet.betLength = (1 minutes * _betLength);\r\n        selfAddress = address(this);\r\n        //xs();\r\n        bytes memory linkLeft = bytes(\"https://ethereumbetting.azurewebsites.net/api/SlidingPuzzleBet/GetWinners?addressPuzzleBet=\");\r\n        bytes memory linkRight = bytes(addressToString(address(this)));\r\n        apiCallAddress = strConcat(string(linkLeft), string(linkRight));\r\n        //emit TestEvent(addrToString(address(this)));\r\n    }\r\n\r\n    function addressToString(address _addr) public pure returns(string memory) {\r\n        bytes32 value = bytes32(uint256(_addr));\r\n        bytes memory alphabet = \"0123456789abcdef\";\r\n\r\n        bytes memory str = new bytes(42);\r\n        str[0] = '0';\r\n        str[1] = 'x';\r\n        for (uint i = 0; i < 20; i++) {\r\n            str[2+i*2] = alphabet[uint8(value[i + 12] >> 4)];\r\n            str[3+i*2] = alphabet[uint8(value[i + 12] & 0x0f)];\r\n        }\r\n        return string(str);\r\n    }\r\n\r\n    function xs() public payable {\r\n        oraclize_query(bet.betLength,\"URL\", apiCallAddress);\r\n    }\r\n\r\n    function getWinnersApi() public payable {\r\n        oraclize_setCustomGasPrice(4000000000);\r\n        emit Log(\"called api\");        \r\n        emit Log(apiCallAddress);\r\n        oraclize_query(\"URL\", apiCallAddress,5000000);\r\n        emit Log(\"finish calling api\");\r\n    }\r\n\r\n    function __callback(bytes32 myid, string memory result) public {\r\n        if (msg.sender != oraclize_cbAddress()) revert();\r\n        emit TestEvent(result);\r\n        bytes memory byteString = bytes(result);\r\n        //Loop through result string\r\n        //Set winners and split by \"@\"\r\n        uint splitAmount = 0;\r\n        bytes memory winnerAddress = new bytes(42);\r\n        bool skipCharacter = false;\r\n        emit Length(byteString.length);\r\n        for(uint i = 0; i < byteString.length; i++){\r\n            if(skipCharacter == true){\r\n                skipCharacter = false;\r\n            }\r\n            else if(splitAmount < 42){\r\n                winnerAddress[splitAmount] = byteString[i];\r\n                splitAmount++;\r\n            }\r\n            if(splitAmount == 42){\r\n                AddWinners(parseAddr(string(winnerAddress)));\r\n                skipCharacter = true;\r\n                winnerAddress = new bytes(42);\r\n                splitAmount = 0;\r\n            }\r\n        }\r\n        divideWinnings();\r\n        emit Winners(bet.winners);\r\n    }\r\n\r\n    event TestEvent(string val);\r\n    event Winner(string val);\r\n    event Length(uint length);\r\n    event Address(address betAdr);\r\n    event Winners(address[] winners);\r\n    event Log(string s);\r\n\r\n    function TestAddWinners(string memory winners) public {\r\n        //emit TestEvent(winners);\r\n        bytes memory byteString = bytes(winners);\r\n        //Loop through result string\r\n        //Set winners and split by \"@\"\r\n        uint splitAmount = 0;\r\n        bytes memory winnerAddress = new bytes(42);\r\n        bool skipCharacter = false;\r\n        //emit Length(byteString.length);\r\n        for(uint i = 0; i < byteString.length; i++){\r\n            if(skipCharacter == true){\r\n                skipCharacter = false;\r\n            }\r\n            else if(splitAmount < 42){\r\n                winnerAddress[splitAmount] = byteString[i];\r\n                splitAmount++;\r\n            }\r\n            if(splitAmount == 42){\r\n                address winnerad = parseAddr(string(winnerAddress));\r\n                if(userAlreadyJoined(winnerad) && !userAlreadyWinner(winnerad)){\r\n                    AddWinners(winnerad);\r\n                }\r\n                skipCharacter = true;\r\n                winnerAddress = new bytes(42);\r\n                splitAmount = 0;\r\n            }\r\n        }\r\n        divideWinnings();\r\n        emit Winners(bet.winners);\r\n    }\r\n\r\n    function AddWinners(address winner) private {\r\n        bet.winners.push(winner);\r\n    }\r\n\r\n    function divideWinnings() private {\r\n        //There are winners\r\n        uint amountWinning = 0;\r\n        if(bet.winners.length > 0) {\r\n            uint256 balance = getStoredBalance();\r\n            while(balance % bet.winners.length != 0) {\r\n                balance = balance - 1;\r\n            }\r\n            amountWinning = balance / bet.winners.length;\r\n        }\r\n        for(uint i = 0;i<bet.winners.length;i++) {\r\n            pendingWithdrawals[bet.winners[i]] = amountWinning;\r\n        }\r\n    }\r\n}",
  "sourcePath": "C:\\Users\\oscar\\Desktop\\code\\Ethereum-Betting\\Ethereum Betting\\ClientApp\\contracts\\PuzzleBet.sol",
  "compiler": {
    "name": "solc",
    "version": "0.5.0+commit.1d4f565a.Emscripten.clang"
  },
  "schemaVersion": "3.0.9",
  "updatedAt": "2019-06-16T17:35:44.054Z",
  "devdoc": {
    "methods": {}
  },
  "userdoc": {
    "methods": {}
  }
}