{
  "contractName": "PuzzleBet",
  "abi": [
    {
      "constant": true,
      "inputs": [],
      "name": "selfAddress",
      "outputs": [
        {
          "name": "",
          "type": "address"
        }
      ],
      "payable": false,
      "stateMutability": "view",
      "type": "function"
    },
    {
      "constant": true,
      "inputs": [],
      "name": "timeLeft",
      "outputs": [
        {
          "name": "",
          "type": "uint256"
        }
      ],
      "payable": false,
      "stateMutability": "view",
      "type": "function"
    },
    {
      "constant": true,
      "inputs": [],
      "name": "getStoredBalance",
      "outputs": [
        {
          "name": "",
          "type": "uint256"
        }
      ],
      "payable": false,
      "stateMutability": "view",
      "type": "function"
    },
    {
      "constant": true,
      "inputs": [],
      "name": "getBet",
      "outputs": [
        {
          "name": "",
          "type": "address"
        },
        {
          "name": "",
          "type": "uint256"
        },
        {
          "name": "",
          "type": "bool"
        },
        {
          "name": "",
          "type": "bool"
        },
        {
          "name": "",
          "type": "uint256"
        },
        {
          "name": "",
          "type": "address[]"
        },
        {
          "name": "",
          "type": "address[]"
        },
        {
          "name": "",
          "type": "bool"
        },
        {
          "name": "",
          "type": "uint256"
        },
        {
          "name": "",
          "type": "uint256"
        }
      ],
      "payable": false,
      "stateMutability": "view",
      "type": "function"
    },
    {
      "constant": false,
      "inputs": [],
      "name": "withdraw",
      "outputs": [],
      "payable": false,
      "stateMutability": "nonpayable",
      "type": "function"
    },
    {
      "constant": true,
      "inputs": [
        {
          "name": "userAddress",
          "type": "address"
        }
      ],
      "name": "userAlreadyJoined",
      "outputs": [
        {
          "name": "",
          "type": "bool"
        }
      ],
      "payable": false,
      "stateMutability": "view",
      "type": "function"
    },
    {
      "constant": true,
      "inputs": [],
      "name": "isOpen",
      "outputs": [
        {
          "name": "",
          "type": "bool"
        }
      ],
      "payable": false,
      "stateMutability": "view",
      "type": "function"
    },
    {
      "constant": true,
      "inputs": [],
      "name": "getOwner",
      "outputs": [
        {
          "name": "",
          "type": "address"
        }
      ],
      "payable": false,
      "stateMutability": "view",
      "type": "function"
    },
    {
      "constant": true,
      "inputs": [],
      "name": "friendsOnly",
      "outputs": [
        {
          "name": "",
          "type": "bool"
        }
      ],
      "payable": false,
      "stateMutability": "view",
      "type": "function"
    },
    {
      "constant": true,
      "inputs": [],
      "name": "checkJoined",
      "outputs": [
        {
          "name": "",
          "type": "bool"
        }
      ],
      "payable": false,
      "stateMutability": "view",
      "type": "function"
    },
    {
      "constant": false,
      "inputs": [],
      "name": "join",
      "outputs": [],
      "payable": true,
      "stateMutability": "payable",
      "type": "function"
    },
    {
      "constant": true,
      "inputs": [],
      "name": "finished",
      "outputs": [
        {
          "name": "",
          "type": "bool"
        }
      ],
      "payable": false,
      "stateMutability": "view",
      "type": "function"
    },
    {
      "constant": true,
      "inputs": [],
      "name": "getWinners",
      "outputs": [
        {
          "name": "",
          "type": "address[]"
        }
      ],
      "payable": false,
      "stateMutability": "view",
      "type": "function"
    },
    {
      "constant": true,
      "inputs": [],
      "name": "getCreationTime",
      "outputs": [
        {
          "name": "",
          "type": "uint256"
        }
      ],
      "payable": false,
      "stateMutability": "view",
      "type": "function"
    },
    {
      "constant": true,
      "inputs": [],
      "name": "getParticipators",
      "outputs": [
        {
          "name": "",
          "type": "address[]"
        }
      ],
      "payable": false,
      "stateMutability": "view",
      "type": "function"
    },
    {
      "constant": true,
      "inputs": [],
      "name": "getBetAmount",
      "outputs": [
        {
          "name": "",
          "type": "uint256"
        }
      ],
      "payable": false,
      "stateMutability": "view",
      "type": "function"
    },
    {
      "inputs": [
        {
          "name": "_owner",
          "type": "address"
        },
        {
          "name": "_amount",
          "type": "uint256"
        },
        {
          "name": "_maxParticipators",
          "type": "uint256"
        },
        {
          "name": "_open",
          "type": "bool"
        },
        {
          "name": "_friendsOnly",
          "type": "bool"
        },
        {
          "name": "_betLength",
          "type": "uint256"
        }
      ],
      "payable": false,
      "stateMutability": "nonpayable",
      "type": "constructor"
    },
    {
      "anonymous": false,
      "inputs": [
        {
          "indexed": false,
          "name": "val",
          "type": "string"
        }
      ],
      "name": "TestEvent",
      "type": "event"
    },
    {
      "anonymous": false,
      "inputs": [
        {
          "indexed": false,
          "name": "val",
          "type": "string"
        }
      ],
      "name": "Winner",
      "type": "event"
    },
    {
      "anonymous": false,
      "inputs": [
        {
          "indexed": false,
          "name": "length",
          "type": "uint256"
        }
      ],
      "name": "Length",
      "type": "event"
    },
    {
      "anonymous": false,
      "inputs": [
        {
          "indexed": false,
          "name": "betAdr",
          "type": "address"
        }
      ],
      "name": "Address",
      "type": "event"
    },
    {
      "anonymous": false,
      "inputs": [
        {
          "indexed": false,
          "name": "winners",
          "type": "address[]"
        }
      ],
      "name": "Winners",
      "type": "event"
    },
    {
      "anonymous": false,
      "inputs": [
        {
          "indexed": false,
          "name": "s",
          "type": "string"
        }
      ],
      "name": "Log",
      "type": "event"
    },
    {
      "anonymous": false,
      "inputs": [
        {
          "indexed": false,
          "name": "withdrawer",
          "type": "address"
        }
      ],
      "name": "WithdrawBy",
      "type": "event"
    },
    {
      "anonymous": false,
      "inputs": [
        {
          "indexed": false,
          "name": "console",
          "type": "string"
        }
      ],
      "name": "Test",
      "type": "event"
    },
    {
      "constant": true,
      "inputs": [
        {
          "name": "_addr",
          "type": "address"
        }
      ],
      "name": "addressToString",
      "outputs": [
        {
          "name": "",
          "type": "string"
        }
      ],
      "payable": false,
      "stateMutability": "pure",
      "type": "function"
    },
    {
      "constant": false,
      "inputs": [],
      "name": "apiCall",
      "outputs": [],
      "payable": false,
      "stateMutability": "nonpayable",
      "type": "function"
    },
    {
      "constant": false,
      "inputs": [
        {
          "name": "myid",
          "type": "bytes32"
        },
        {
          "name": "result",
          "type": "string"
        }
      ],
      "name": "__callback",
      "outputs": [],
      "payable": false,
      "stateMutability": "nonpayable",
      "type": "function"
    },
    {
      "constant": false,
      "inputs": [
        {
          "name": "_myid",
          "type": "bytes32"
        },
        {
          "name": "_result",
          "type": "string"
        },
        {
          "name": "_proof",
          "type": "bytes"
        }
      ],
      "name": "__callback",
      "outputs": [],
      "payable": false,
      "stateMutability": "nonpayable",
      "type": "function"
    },
    {
      "constant": false,
      "inputs": [
        {
          "name": "winners",
          "type": "string"
        }
      ],
      "name": "TestAddWinners",
      "outputs": [],
      "payable": false,
      "stateMutability": "nonpayable",
      "type": "function"
    }
  ],
  "bytecode": "0x60806040523480156200001157600080fd5b5060405160c0806200497d833981018060405260c08110156200003357600080fd5b81019080805190602001909291908051906020019092919080519060200190929190805190602001909291908051906020019092919080519060200190929190505050736f485c8bf6fc43ea212e93bbf8ce046c7f1cb475600160006101000a81548173ffffffffffffffffffffffffffffffffffffffff021916908373ffffffffffffffffffffffffffffffffffffffff160217905550600081118015620000dd575060408411155b8015620000ea5750600084115b15156200015f576040517f08c379a000000000000000000000000000000000000000000000000000000000815260040180806020018281038252601e8152602001807f4661696c656420746f20737570706c7920636f727265637420696e707574000081525060200191505060405180910390fd5b4260066000018190555085600660020160006101000a81548173ffffffffffffffffffffffffffffffffffffffff021916908373ffffffffffffffffffffffffffffffffffffffff1602179055508460066005018190555083600680018190555082600660070160006101000a81548160ff02191690831515021790555081600660070160016101000a81548160ff0219169083151502179055506000600660070160026101000a81548160ff02191690831515021790555080603c0260066001018190555030600e60006101000a81548173ffffffffffffffffffffffffffffffffffffffff021916908373ffffffffffffffffffffffffffffffffffffffff1602179055506060608060405190810160405280605b81526020017f68747470733a2f2f657468657265756d62657474696e672e617a75726577656281526020017f73697465732e6e65742f6170692f536c6964696e6750757a7a6c654265742f4781526020017f657457696e6e6572733f6164647265737350757a7a6c654265743d0000000000815250905060606200030930620003cd640100000000026401000000009004565b905062000326828262000792640100000000026401000000009004565b600f90805190602001906200033d929190620018ae565b507fcf34ef537ac33ee1ac626ca1587a0a7e8e51561e5514f8cb36afa1c5102b3bab60405180806020018281038252600d8152602001807f5465737420696e636f6d696e670000000000000000000000000000000000000081525060200191505060405180910390a1620003bf620007ea640100000000026401000000009004565b50505050505050506200195d565b606060008273ffffffffffffffffffffffffffffffffffffffff16600102905060606040805190810160405280601081526020017f303132333435363738396162636465660000000000000000000000000000000081525090506060602a6040519080825280601f01601f1916602001820160405280156200045e5781602001600182028038833980820191505090505b5090507f30000000000000000000000000000000000000000000000000000000000000008160008151811015156200049257fe5b9060200101907effffffffffffffffffffffffffffffffffffffffffffffffffffffffffffff1916908160001a9053507f7800000000000000000000000000000000000000000000000000000000000000816001815181101515620004f357fe5b9060200101907effffffffffffffffffffffffffffffffffffffffffffffffffffffffffffff1916908160001a90535060008090505b6014811015620007865782600485600c84016020811015156200054857fe5b1a7f0100000000000000000000000000000000000000000000000000000000000000027effffffffffffffffffffffffffffffffffffffffffffffffffffffffffffff1916908060020a82049150507f0100000000000000000000000000000000000000000000000000000000000000900460ff16815181101515620005ca57fe5b9060200101517f010000000000000000000000000000000000000000000000000000000000000090047f01000000000000000000000000000000000000000000000000000000000000000282600283026002018151811015156200062a57fe5b9060200101907effffffffffffffffffffffffffffffffffffffffffffffffffffffffffffff1916908160001a90535082600f7f01000000000000000000000000000000000000000000000000000000000000000285600c84016020811015156200069157fe5b1a7f010000000000000000000000000000000000000000000000000000000000000002167f0100000000000000000000000000000000000000000000000000000000000000900460ff16815181101515620006e857fe5b9060200101517f010000000000000000000000000000000000000000000000000000000000000090047f01000000000000000000000000000000000000000000000000000000000000000282600283026003018151811015156200074857fe5b9060200101907effffffffffffffffffffffffffffffffffffffffffffffffffffffffffffff1916908160001a905350808060010191505062000529565b50809350505050919050565b6060620007e28383602060405190810160405280600081525060206040519081016040528060008152506020604051908101604052806000815250620008e1640100000000026401000000009004565b905092915050565b620008de6006600101546040805190810160405280600381526020017f55524c0000000000000000000000000000000000000000000000000000000000815250600f8054600181600116156101000203166002900480601f016020809104026020016040519081016040528092919081815260200182805460018160011615610100020316600290048015620008c45780601f106200089857610100808354040283529160200191620008c4565b820191906000526020600020905b815481529060010190602001808311620008a657829003601f168201915b505050505062000d11640100000000026401000000009004565b50565b6060808690506060869050606086905060608690506060869050606081518351855187518951010101016040519080825280601f01601f1916602001820160405280156200093e5781602001600182028038833980820191505090505b509050606081905060008090506000809050600090505b885181101562000a0c5788818151811015156200096e57fe5b9060200101517f010000000000000000000000000000000000000000000000000000000000000090047f0100000000000000000000000000000000000000000000000000000000000000028383806001019450815181101515620009ce57fe5b9060200101907effffffffffffffffffffffffffffffffffffffffffffffffffffffffffffff1916908160001a905350808060010191505062000955565b600090505b875181101562000ac857878181518110151562000a2a57fe5b9060200101517f010000000000000000000000000000000000000000000000000000000000000090047f010000000000000000000000000000000000000000000000000000000000000002838380600101945081518110151562000a8a57fe5b9060200101907effffffffffffffffffffffffffffffffffffffffffffffffffffffffffffff1916908160001a905350808060010191505062000a11565b600090505b865181101562000b8457868181518110151562000ae657fe5b9060200101517f010000000000000000000000000000000000000000000000000000000000000090047f010000000000000000000000000000000000000000000000000000000000000002838380600101945081518110151562000b4657fe5b9060200101907effffffffffffffffffffffffffffffffffffffffffffffffffffffffffffff1916908160001a905350808060010191505062000acd565b600090505b855181101562000c4057858181518110151562000ba257fe5b9060200101517f010000000000000000000000000000000000000000000000000000000000000090047f010000000000000000000000000000000000000000000000000000000000000002838380600101945081518110151562000c0257fe5b9060200101907effffffffffffffffffffffffffffffffffffffffffffffffffffffffffffff1916908160001a905350808060010191505062000b89565b600090505b845181101562000cfc57848181518110151562000c5e57fe5b9060200101517f010000000000000000000000000000000000000000000000000000000000000090047f010000000000000000000000000000000000000000000000000000000000000002838380600101945081518110151562000cbe57fe5b9060200101907effffffffffffffffffffffffffffffffffffffffffffffffffffffffffffff1916908160001a905350808060010191505062000c45565b82995050505050505050505095945050505050565b60008073ffffffffffffffffffffffffffffffffffffffff16600160009054906101000a900473ffffffffffffffffffffffffffffffffffffffff1673ffffffffffffffffffffffffffffffffffffffff16148062000dab5750600062000da9600160009054906101000a900473ffffffffffffffffffffffffffffffffffffffff1662001306640100000000026401000000009004565b145b1562000dce5762000dcc600062001311640100000000026401000000009004565b505b600160009054906101000a900473ffffffffffffffffffffffffffffffffffffffff1673ffffffffffffffffffffffffffffffffffffffff166338cc48316040518163ffffffff167c0100000000000000000000000000000000000000000000000000000000028152600401602060405180830381600087803b15801562000e5557600080fd5b505af115801562000e6a573d6000803e3d6000fd5b505050506040513d602081101562000e8157600080fd5b810190808051906020019092919050505073ffffffffffffffffffffffffffffffffffffffff166000809054906101000a900473ffffffffffffffffffffffffffffffffffffffff1673ffffffffffffffffffffffffffffffffffffffff1614151562000fec57600160009054906101000a900473ffffffffffffffffffffffffffffffffffffffff1673ffffffffffffffffffffffffffffffffffffffff166338cc48316040518163ffffffff167c0100000000000000000000000000000000000000000000000000000000028152600401602060405180830381600087803b15801562000f6f57600080fd5b505af115801562000f84573d6000803e3d6000fd5b505050506040513d602081101562000f9b57600080fd5b81019080805190602001909291905050506000806101000a81548173ffffffffffffffffffffffffffffffffffffffff021916908373ffffffffffffffffffffffffffffffffffffffff1602179055505b60008060009054906101000a900473ffffffffffffffffffffffffffffffffffffffff1673ffffffffffffffffffffffffffffffffffffffff1663524f3889856040518263ffffffff167c01000000000000000000000000000000000000000000000000000000000281526004018080602001828103825283818151815260200191508051906020019080838360005b83811015620010995780820151818401526020810190506200107c565b50505050905090810190601f168015620010c75780820380516001836020036101000a031916815260200191505b5092505050602060405180830381600087803b158015620010e757600080fd5b505af1158015620010fc573d6000803e3d6000fd5b505050506040513d60208110156200111357600080fd5b8101908080519060200190929190505050905062030d403a02670de0b6b3a7640000018111156200114c576000600102915050620012ff565b6000809054906101000a900473ffffffffffffffffffffffffffffffffffffffff1673ffffffffffffffffffffffffffffffffffffffff1663adf59f99828787876040518563ffffffff167c0100000000000000000000000000000000000000000000000000000000028152600401808481526020018060200180602001838103835285818151815260200191508051906020019080838360005b8381101562001204578082015181840152602081019050620011e7565b50505050905090810190601f168015620012325780820380516001836020036101000a031916815260200191505b50838103825284818151815260200191508051906020019080838360005b838110156200126d57808201518184015260208101905062001250565b50505050905090810190601f1680156200129b5780820380516001836020036101000a031916815260200191505b50955050505050506020604051808303818588803b158015620012bd57600080fd5b505af1158015620012d2573d6000803e3d6000fd5b50505050506040513d6020811015620012ea57600080fd5b81019080805190602001909291905050509150505b9392505050565b6000813b9050919050565b60006200132c62001333640100000000026401000000009004565b9050919050565b60008062001364731d3b2638a7cc9f2cb3d298a3da7a90b67e5506ed62001306640100000000026401000000009004565b11156200141957731d3b2638a7cc9f2cb3d298a3da7a90b67e5506ed600160006101000a81548173ffffffffffffffffffffffffffffffffffffffff021916908373ffffffffffffffffffffffffffffffffffffffff1602179055506200140f6040805190810160405280600b81526020017f6574685f6d61696e6e657400000000000000000000000000000000000000000081525062001892640100000000026401000000009004565b600190506200188f565b60006200144973c03a2615d5efaf5f49f60b7bb6583eaec212fdf162001306640100000000026401000000009004565b1115620014fe5773c03a2615d5efaf5f49f60b7bb6583eaec212fdf1600160006101000a81548173ffffffffffffffffffffffffffffffffffffffff021916908373ffffffffffffffffffffffffffffffffffffffff160217905550620014f46040805190810160405280600c81526020017f6574685f726f707374656e33000000000000000000000000000000000000000081525062001892640100000000026401000000009004565b600190506200188f565b60006200152e73b7a07bcf2ba2f2703b24c0691b5278999c59ac7e62001306640100000000026401000000009004565b1115620015e35773b7a07bcf2ba2f2703b24c0691b5278999c59ac7e600160006101000a81548173ffffffffffffffffffffffffffffffffffffffff021916908373ffffffffffffffffffffffffffffffffffffffff160217905550620015d96040805190810160405280600981526020017f6574685f6b6f76616e000000000000000000000000000000000000000000000081525062001892640100000000026401000000009004565b600190506200188f565b60006200161373146500cfd35b22e4a392fe0adc06de1a1368ed4862001306640100000000026401000000009004565b1115620016c85773146500cfd35b22e4a392fe0adc06de1a1368ed48600160006101000a81548173ffffffffffffffffffffffffffffffffffffffff021916908373ffffffffffffffffffffffffffffffffffffffff160217905550620016be6040805190810160405280600b81526020017f6574685f72696e6b65627900000000000000000000000000000000000000000081525062001892640100000000026401000000009004565b600190506200188f565b6000620016f8736f485c8bf6fc43ea212e93bbf8ce046c7f1cb47562001306640100000000026401000000009004565b11156200175e57736f485c8bf6fc43ea212e93bbf8ce046c7f1cb475600160006101000a81548173ffffffffffffffffffffffffffffffffffffffff021916908373ffffffffffffffffffffffffffffffffffffffff160217905550600190506200188f565b60006200178e7320e12a1f859b3feae5fb2a0a32c18f5a65555bbf62001306640100000000026401000000009004565b1115620017f4577320e12a1f859b3feae5fb2a0a32c18f5a65555bbf600160006101000a81548173ffffffffffffffffffffffffffffffffffffffff021916908373ffffffffffffffffffffffffffffffffffffffff160217905550600190506200188f565b6000620018247351efaf4c8b3c9afbd5ab9f4bbc82784ab6ef8faa62001306640100000000026401000000009004565b11156200188a577351efaf4c8b3c9afbd5ab9f4bbc82784ab6ef8faa600160006101000a81548173ffffffffffffffffffffffffffffffffffffffff021916908373ffffffffffffffffffffffffffffffffffffffff160217905550600190506200188f565b600090505b90565b8060029080519060200190620018aa929190620018ae565b5050565b828054600181600116156101000203166002900490600052602060002090601f016020900481019282601f10620018f157805160ff191683800117855562001922565b8280016001018555821562001922579182015b828111156200192157825182559160200191906001019062001904565b5b50905062001931919062001935565b5090565b6200195a91905b80821115620019565760008160009055506001016200193c565b5090565b90565b613010806200196d6000396000f3fe60806040526004361061011d576000357c0100000000000000000000000000000000000000000000000000000000900463ffffffff16806312e905b0146101225780631300a6d1146101795780631e6be911146101a457806320835e8c146101cf57806327dc297e146102f357806338bbfa50146103c55780633ccfd60b1461052e5780633d0dbf2f1461054557806347535d7b146105ae5780635e57966d146105dd578063614b3cf5146106a75780636bba01a0146106be578063893d20e81461078657806389b5af53146107dd5780639d26c6f21461080c578063b688a3631461083b578063bef4876b14610845578063df15c37e14610874578063e6519a35146108e0578063f8a0b6951461090b578063fde41e2914610977575b600080fd5b34801561012e57600080fd5b506101376109a2565b604051808273ffffffffffffffffffffffffffffffffffffffff1673ffffffffffffffffffffffffffffffffffffffff16815260200191505060405180910390f35b34801561018557600080fd5b5061018e6109c8565b6040518082815260200191505060405180910390f35b3480156101b057600080fd5b506101b96109ea565b6040518082815260200191505060405180910390f35b3480156101db57600080fd5b506101e4610a09565b604051808b73ffffffffffffffffffffffffffffffffffffffff1673ffffffffffffffffffffffffffffffffffffffff1681526020018a81526020018915151515815260200188151515158152602001878152602001806020018060200186151515158152602001858152602001848152602001838103835288818151815260200191508051906020019060200280838360005b83811015610293578082015181840152602081019050610278565b50505050905001838103825287818151815260200191508051906020019060200280838360005b838110156102d55780820151818401526020810190506102ba565b505050509050019c5050505050505050505050505060405180910390f35b3480156102ff57600080fd5b506103c36004803603604081101561031657600080fd5b81019080803590602001909291908035906020019064010000000081111561033d57600080fd5b82018360208201111561034f57600080fd5b8035906020019184600183028401116401000000008311171561037157600080fd5b91908080601f016020809104026020016040519081016040528093929190818152602001838380828437600081840152601f19601f820116905080830192505050505050509192919290505050610bc9565b005b3480156103d157600080fd5b5061052c600480360360608110156103e857600080fd5b81019080803590602001909291908035906020019064010000000081111561040f57600080fd5b82018360208201111561042157600080fd5b8035906020019184600183028401116401000000008311171561044357600080fd5b91908080601f016020809104026020016040519081016040528093929190818152602001838380828437600081840152601f19601f820116905080830192505050505050509192919290803590602001906401000000008111156104a657600080fd5b8201836020820111156104b857600080fd5b803590602001918460018302840111640100000000831117156104da57600080fd5b91908080601f016020809104026020016040519081016040528093929190818152602001838380828437600081840152601f19601f820116905080830192505050505050509192919290505050610e6d565b005b34801561053a57600080fd5b50610543610e72565b005b34801561055157600080fd5b506105946004803603602081101561056857600080fd5b81019080803573ffffffffffffffffffffffffffffffffffffffff169060200190929190505050610fa8565b604051808215151515815260200191505060405180910390f35b3480156105ba57600080fd5b506105c3611052565b604051808215151515815260200191505060405180910390f35b3480156105e957600080fd5b5061062c6004803603602081101561060057600080fd5b81019080803573ffffffffffffffffffffffffffffffffffffffff16906020019092919050505061106c565b6040518080602001828103825283818151815260200191508051906020019080838360005b8381101561066c578082015181840152602081019050610651565b50505050905090810190601f1680156106995780820380516001836020036101000a031916815260200191505b509250505060405180910390f35b3480156106b357600080fd5b506106bc611426565b005b3480156106ca57600080fd5b50610784600480360360208110156106e157600080fd5b81019080803590602001906401000000008111156106fe57600080fd5b82018360208201111561071057600080fd5b8035906020019184600183028401116401000000008311171561073257600080fd5b91908080601f016020809104026020016040519081016040528093929190818152602001838380828437600081840152601f19601f820116905080830192505050505050509192919290505050611508565b005b34801561079257600080fd5b5061079b61176c565b604051808273ffffffffffffffffffffffffffffffffffffffff1673ffffffffffffffffffffffffffffffffffffffff16815260200191505060405180910390f35b3480156107e957600080fd5b506107f2611799565b604051808215151515815260200191505060405180910390f35b34801561081857600080fd5b506108216118a1565b604051808215151515815260200191505060405180910390f35b6108436118b1565b005b34801561085157600080fd5b5061085a611ab4565b604051808215151515815260200191505060405180910390f35b34801561088057600080fd5b50610889611ace565b6040518080602001828103825283818151815260200191508051906020019060200280838360005b838110156108cc5780820151818401526020810190506108b1565b505050509050019250505060405180910390f35b3480156108ec57600080fd5b506108f5611b5f565b6040518082815260200191505060405180910390f35b34801561091757600080fd5b50610920611b6c565b6040518080602001828103825283818151815260200191508051906020019060200280838360005b83811015610963578082015181840152602081019050610948565b505050509050019250505060405180910390f35b34801561098357600080fd5b5061098c611bfd565b6040518082815260200191505060405180910390f35b600e60009054906101000a900473ffffffffffffffffffffffffffffffffffffffff1681565b6000603c6006600101540242600660000154038115156109e457fe5b04905090565b60003073ffffffffffffffffffffffffffffffffffffffff1631905090565b60008060008060006060806000806000600660020160009054906101000a900473ffffffffffffffffffffffffffffffffffffffff16600660050154600660070160019054906101000a900460ff16600660070160009054906101000a900460ff16600680015460066003016006600401600660070160029054906101000a900460ff1660066001015460066000015484805480602002602001604051908101604052809291908181526020018280548015610b1a57602002820191906000526020600020905b8160009054906101000a900473ffffffffffffffffffffffffffffffffffffffff1673ffffffffffffffffffffffffffffffffffffffff1681526020019060010190808311610ad0575b5050505050945083805480602002602001604051908101604052809291908181526020018280548015610ba257602002820191906000526020600020905b8160009054906101000a900473ffffffffffffffffffffffffffffffffffffffff1673ffffffffffffffffffffffffffffffffffffffff1681526020019060010190808311610b58575b50505050509350995099509950995099509950995099509950995090919293949596979899565b610bd1611c0a565b73ffffffffffffffffffffffffffffffffffffffff163373ffffffffffffffffffffffffffffffffffffffff16141515610c0a57600080fd5b7fe75028ff36bb6473da3731a30e1aeeae9988e2415dba2c4e91e0357955065fba816040518080602001828103825283818151815260200191508051906020019080838360005b83811015610c6c578082015181840152602081019050610c51565b50505050905090810190601f168015610c995780820380516001836020036101000a031916815260200191505b509250505060405180910390a1606081905060008090506060602a6040519080825280601f01601f191660200182016040528015610ce65781602001600182028038833980820191505090505b50905060008090507f090488eede6071b3dc8bd6f7821d5d6d147602c20be98ed1250b52537184572e84516040518082815260200191505060405180910390a160008090505b8451811015610e5c57600115158215151415610d4b5760009150610df5565b602a841015610df4578481815181101515610d6257fe5b9060200101517f010000000000000000000000000000000000000000000000000000000000000090047f0100000000000000000000000000000000000000000000000000000000000000028385815181101515610dbb57fe5b9060200101907effffffffffffffffffffffffffffffffffffffffffffffffffffffffffffff1916908160001a90535083806001019450505b5b602a841415610e4f57610e0f610e0a84611f7d565b61229a565b60019150602a6040519080825280601f01601f191660200182016040528015610e475781602001600182028038833980820191505090505b509250600093505b8080600101915050610d2c565b50610e65612306565b505050505050565b505050565b7fdfe4e585299ae56dce99e64d027d30c281c9f2c79bb347cd9064db7d3933609033604051808273ffffffffffffffffffffffffffffffffffffffff1673ffffffffffffffffffffffffffffffffffffffff16815260200191505060405180910390a16000600560003373ffffffffffffffffffffffffffffffffffffffff1673ffffffffffffffffffffffffffffffffffffffff1681526020019081526020016000205490506000600560003373ffffffffffffffffffffffffffffffffffffffff1673ffffffffffffffffffffffffffffffffffffffff168152602001908152602001600020819055503373ffffffffffffffffffffffffffffffffffffffff166108fc829081150290604051600060405180830381858888f19350505050158015610fa4573d6000803e3d6000fd5b5050565b600080600090505b600660030180549050811015611047578273ffffffffffffffffffffffffffffffffffffffff16600660030182815481101515610fe957fe5b9060005260206000200160009054906101000a900473ffffffffffffffffffffffffffffffffffffffff1673ffffffffffffffffffffffffffffffffffffffff16141561103a57600191505061104d565b8080600101915050610fb0565b50600090505b919050565b6000600660070160009054906101000a900460ff16905090565b606060008273ffffffffffffffffffffffffffffffffffffffff16600102905060606040805190810160405280601081526020017f303132333435363738396162636465660000000000000000000000000000000081525090506060602a6040519080825280601f01601f1916602001820160405280156110fc5781602001600182028038833980820191505090505b5090507f300000000000000000000000000000000000000000000000000000000000000081600081518110151561112f57fe5b9060200101907effffffffffffffffffffffffffffffffffffffffffffffffffffffffffffff1916908160001a9053507f780000000000000000000000000000000000000000000000000000000000000081600181518110151561118f57fe5b9060200101907effffffffffffffffffffffffffffffffffffffffffffffffffffffffffffff1916908160001a90535060008090505b601481101561141a5782600485600c84016020811015156111e257fe5b1a7f0100000000000000000000000000000000000000000000000000000000000000027effffffffffffffffffffffffffffffffffffffffffffffffffffffffffffff1916908060020a82049150507f0100000000000000000000000000000000000000000000000000000000000000900460ff1681518110151561126357fe5b9060200101517f010000000000000000000000000000000000000000000000000000000000000090047f01000000000000000000000000000000000000000000000000000000000000000282600283026002018151811015156112c257fe5b9060200101907effffffffffffffffffffffffffffffffffffffffffffffffffffffffffffff1916908160001a90535082600f7f01000000000000000000000000000000000000000000000000000000000000000285600c840160208110151561132857fe5b1a7f010000000000000000000000000000000000000000000000000000000000000002167f0100000000000000000000000000000000000000000000000000000000000000900460ff1681518110151561137e57fe5b9060200101517f010000000000000000000000000000000000000000000000000000000000000090047f01000000000000000000000000000000000000000000000000000000000000000282600283026003018151811015156113dd57fe5b9060200101907effffffffffffffffffffffffffffffffffffffffffffffffffffffffffffff1916908160001a90535080806001019150506111c5565b50809350505050919050565b6115056006600101546040805190810160405280600381526020017f55524c0000000000000000000000000000000000000000000000000000000000815250600f8054600181600116156101000203166002900480601f0160208091040260200160405190810160405280929190818152602001828054600181600116156101000203166002900480156114fb5780601f106114d0576101008083540402835291602001916114fb565b820191906000526020600020905b8154815290600101906020018083116114de57829003601f168201915b5050505050612410565b50565b606081905060008090506060602a6040519080825280601f01601f1916602001820160405280156115485781602001600182028038833980820191505090505b509050600080905060008090505b84518110156116ad57600115158215151415611575576000915061161f565b602a84101561161e57848181518110151561158c57fe5b9060200101517f010000000000000000000000000000000000000000000000000000000000000090047f01000000000000000000000000000000000000000000000000000000000000000283858151811015156115e557fe5b9060200101907effffffffffffffffffffffffffffffffffffffffffffffffffffffffffffff1916908160001a90535083806001019450505b5b602a8414156116a057600061163384611f7d565b905061163e81610fa8565b8015611650575061164e816129c9565b155b1561165f5761165e8161229a565b5b60019250602a6040519080825280601f01601f1916602001820160405280156116975781602001600182028038833980820191505090505b50935060009450505b8080600101915050611556565b506116b6612306565b7f269ee29ef3602a66e11783821e5f60cb92750b4c4c9294864c8c450b3bf6a43660066004016040518080602001828103825283818154815260200191508054801561175757602002820191906000526020600020905b8160009054906101000a900473ffffffffffffffffffffffffffffffffffffffff1673ffffffffffffffffffffffffffffffffffffffff168152602001906001019080831161170d575b50509250505060405180910390a15050505050565b6000600660020160009054906101000a900473ffffffffffffffffffffffffffffffffffffffff16905090565b6000600660020160009054906101000a900473ffffffffffffffffffffffffffffffffffffffff1673ffffffffffffffffffffffffffffffffffffffff163373ffffffffffffffffffffffffffffffffffffffff16141515611889576040517f08c379a00000000000000000000000000000000000000000000000000000000081526004018080602001828103825260228152602001807f4f6e6c79206f776e65722063616e2063616c6c20746869732066756e6374696f81526020017f6e2e00000000000000000000000000000000000000000000000000000000000081525060400191505060405180910390fd5b600660070160019054906101000a900460ff16905090565b60006118ac33610fa8565b905090565b670de0b6b3a76400006006600501540234141515611937576040517f08c379a000000000000000000000000000000000000000000000000000000000815260040180806020018281038252600f8152602001807f52657175697265732045746865722e000000000000000000000000000000000081525060200191505060405180910390fd5b60011515600660070160009054906101000a900460ff1615151415156119c5576040517f08c379a000000000000000000000000000000000000000000000000000000000815260040180806020018281038252600f8152602001807f426574206973206e6f74206f70656e000000000000000000000000000000000081525060200191505060405180910390fd5b600015156119d233610fa8565b1515141515611a49576040517f08c379a00000000000000000000000000000000000000000000000000000000081526004018080602001828103825260208152602001807f557365722068617320616c7265616479206a6f696e656420746869732062657481525060200191505060405180910390fd5b60066003013390806001815401808255809150509060018203906000526020600020016000909192909190916101000a81548173ffffffffffffffffffffffffffffffffffffffff021916908373ffffffffffffffffffffffffffffffffffffffff16021790555050565b6000600660070160029054906101000a900460ff16905090565b60606006600401805480602002602001604051908101604052809291908181526020018280548015611b5557602002820191906000526020600020905b8160009054906101000a900473ffffffffffffffffffffffffffffffffffffffff1673ffffffffffffffffffffffffffffffffffffffff1681526020019060010190808311611b0b575b5050505050905090565b6000600660000154905090565b60606006600301805480602002602001604051908101604052809291908181526020018280548015611bf357602002820191906000526020600020905b8160009054906101000a900473ffffffffffffffffffffffffffffffffffffffff1673ffffffffffffffffffffffffffffffffffffffff1681526020019060010190808311611ba9575b5050505050905090565b6000600660050154905090565b60008073ffffffffffffffffffffffffffffffffffffffff16600160009054906101000a900473ffffffffffffffffffffffffffffffffffffffff1673ffffffffffffffffffffffffffffffffffffffff161480611c9257506000611c90600160009054906101000a900473ffffffffffffffffffffffffffffffffffffffff16612a73565b145b15611ca357611ca16000612a7e565b505b600160009054906101000a900473ffffffffffffffffffffffffffffffffffffffff1673ffffffffffffffffffffffffffffffffffffffff166338cc48316040518163ffffffff167c0100000000000000000000000000000000000000000000000000000000028152600401602060405180830381600087803b158015611d2957600080fd5b505af1158015611d3d573d6000803e3d6000fd5b505050506040513d6020811015611d5357600080fd5b810190808051906020019092919050505073ffffffffffffffffffffffffffffffffffffffff166000809054906101000a900473ffffffffffffffffffffffffffffffffffffffff1673ffffffffffffffffffffffffffffffffffffffff16141515611eba57600160009054906101000a900473ffffffffffffffffffffffffffffffffffffffff1673ffffffffffffffffffffffffffffffffffffffff166338cc48316040518163ffffffff167c0100000000000000000000000000000000000000000000000000000000028152600401602060405180830381600087803b158015611e3f57600080fd5b505af1158015611e53573d6000803e3d6000fd5b505050506040513d6020811015611e6957600080fd5b81019080805190602001909291905050506000806101000a81548173ffffffffffffffffffffffffffffffffffffffff021916908373ffffffffffffffffffffffffffffffffffffffff1602179055505b6000809054906101000a900473ffffffffffffffffffffffffffffffffffffffff1673ffffffffffffffffffffffffffffffffffffffff1663c281d19e6040518163ffffffff167c010000000000000000000000000000000000000000000000000000000002815260040160206040518083038186803b158015611f3d57600080fd5b505afa158015611f51573d6000803e3d6000fd5b505050506040513d6020811015611f6757600080fd5b8101908080519060200190929190505050905090565b6000606082905060008090506000806000600290505b602a81101561228d57610100840293508481815181101515611fb157fe5b9060200101517f010000000000000000000000000000000000000000000000000000000000000090047f0100000000000000000000000000000000000000000000000000000000000000027f0100000000000000000000000000000000000000000000000000000000000000900460ff169250846001820181518110151561203557fe5b9060200101517f010000000000000000000000000000000000000000000000000000000000000090047f0100000000000000000000000000000000000000000000000000000000000000027f0100000000000000000000000000000000000000000000000000000000000000900460ff16915060618373ffffffffffffffffffffffffffffffffffffffff16101580156120e6575060668373ffffffffffffffffffffffffffffffffffffffff1611155b156120f657605783039250612190565b60418373ffffffffffffffffffffffffffffffffffffffff1610158015612134575060468373ffffffffffffffffffffffffffffffffffffffff1611155b156121445760378303925061218f565b60308373ffffffffffffffffffffffffffffffffffffffff1610158015612182575060398373ffffffffffffffffffffffffffffffffffffffff1611155b1561218e576030830392505b5b5b60618273ffffffffffffffffffffffffffffffffffffffff16101580156121ce575060668273ffffffffffffffffffffffffffffffffffffffff1611155b156121de57605782039150612278565b60418273ffffffffffffffffffffffffffffffffffffffff161015801561221c575060468273ffffffffffffffffffffffffffffffffffffffff1611155b1561222c57603782039150612277565b60308273ffffffffffffffffffffffffffffffffffffffff161015801561226a575060398273ffffffffffffffffffffffffffffffffffffffff1611155b15612276576030820391505b5b5b81601084020184019350600281019050611f93565b5082945050505050919050565b60066004018190806001815401808255809150509060018203906000526020600020016000909192909190916101000a81548173ffffffffffffffffffffffffffffffffffffffff021916908373ffffffffffffffffffffffffffffffffffffffff1602179055505050565b6000809050600060066004018054905011156123695760006123266109ea565b90505b60006006600401805490508281151561233e57fe5b0614151561235157600181039050612329565b6006600401805490508181151561236457fe5b049150505b60008090505b60066004018054905081101561240c57816005600060066004018481548110151561239657fe5b9060005260206000200160009054906101000a900473ffffffffffffffffffffffffffffffffffffffff1673ffffffffffffffffffffffffffffffffffffffff1673ffffffffffffffffffffffffffffffffffffffff16815260200190815260200160002081905550808060010191505061236f565b5050565b60008073ffffffffffffffffffffffffffffffffffffffff16600160009054906101000a900473ffffffffffffffffffffffffffffffffffffffff1673ffffffffffffffffffffffffffffffffffffffff16148061249857506000612496600160009054906101000a900473ffffffffffffffffffffffffffffffffffffffff16612a73565b145b156124a9576124a76000612a7e565b505b600160009054906101000a900473ffffffffffffffffffffffffffffffffffffffff1673ffffffffffffffffffffffffffffffffffffffff166338cc48316040518163ffffffff167c0100000000000000000000000000000000000000000000000000000000028152600401602060405180830381600087803b15801561252f57600080fd5b505af1158015612543573d6000803e3d6000fd5b505050506040513d602081101561255957600080fd5b810190808051906020019092919050505073ffffffffffffffffffffffffffffffffffffffff166000809054906101000a900473ffffffffffffffffffffffffffffffffffffffff1673ffffffffffffffffffffffffffffffffffffffff161415156126c057600160009054906101000a900473ffffffffffffffffffffffffffffffffffffffff1673ffffffffffffffffffffffffffffffffffffffff166338cc48316040518163ffffffff167c0100000000000000000000000000000000000000000000000000000000028152600401602060405180830381600087803b15801561264557600080fd5b505af1158015612659573d6000803e3d6000fd5b505050506040513d602081101561266f57600080fd5b81019080805190602001909291905050506000806101000a81548173ffffffffffffffffffffffffffffffffffffffff021916908373ffffffffffffffffffffffffffffffffffffffff1602179055505b60008060009054906101000a900473ffffffffffffffffffffffffffffffffffffffff1673ffffffffffffffffffffffffffffffffffffffff1663524f3889856040518263ffffffff167c01000000000000000000000000000000000000000000000000000000000281526004018080602001828103825283818151815260200191508051906020019080838360005b8381101561276b578082015181840152602081019050612750565b50505050905090810190601f1680156127985780820380516001836020036101000a031916815260200191505b5092505050602060405180830381600087803b1580156127b757600080fd5b505af11580156127cb573d6000803e3d6000fd5b505050506040513d60208110156127e157600080fd5b8101908080519060200190929190505050905062030d403a02670de0b6b3a7640000018111156128185760006001029150506129c2565b6000809054906101000a900473ffffffffffffffffffffffffffffffffffffffff1673ffffffffffffffffffffffffffffffffffffffff1663adf59f99828787876040518563ffffffff167c0100000000000000000000000000000000000000000000000000000000028152600401808481526020018060200180602001838103835285818151815260200191508051906020019080838360005b838110156128ce5780820151818401526020810190506128b3565b50505050905090810190601f1680156128fb5780820380516001836020036101000a031916815260200191505b50838103825284818151815260200191508051906020019080838360005b83811015612934578082015181840152602081019050612919565b50505050905090810190601f1680156129615780820380516001836020036101000a031916815260200191505b50955050505050506020604051808303818588803b15801561298257600080fd5b505af1158015612996573d6000803e3d6000fd5b50505050506040513d60208110156129ad57600080fd5b81019080805190602001909291905050509150505b9392505050565b600080600090505b600660040180549050811015612a68578273ffffffffffffffffffffffffffffffffffffffff16600660040182815481101515612a0a57fe5b9060005260206000200160009054906101000a900473ffffffffffffffffffffffffffffffffffffffff1673ffffffffffffffffffffffffffffffffffffffff161415612a5b576001915050612a6e565b80806001019150506129d1565b50600090505b919050565b6000813b9050919050565b6000612a88612a8f565b9050919050565b600080612aaf731d3b2638a7cc9f2cb3d298a3da7a90b67e5506ed612a73565b1115612b5157731d3b2638a7cc9f2cb3d298a3da7a90b67e5506ed600160006101000a81548173ffffffffffffffffffffffffffffffffffffffff021916908373ffffffffffffffffffffffffffffffffffffffff160217905550612b486040805190810160405280600b81526020017f6574685f6d61696e6e6574000000000000000000000000000000000000000000815250612f25565b60019050612f22565b6000612b7073c03a2615d5efaf5f49f60b7bb6583eaec212fdf1612a73565b1115612c125773c03a2615d5efaf5f49f60b7bb6583eaec212fdf1600160006101000a81548173ffffffffffffffffffffffffffffffffffffffff021916908373ffffffffffffffffffffffffffffffffffffffff160217905550612c096040805190810160405280600c81526020017f6574685f726f707374656e330000000000000000000000000000000000000000815250612f25565b60019050612f22565b6000612c3173b7a07bcf2ba2f2703b24c0691b5278999c59ac7e612a73565b1115612cd35773b7a07bcf2ba2f2703b24c0691b5278999c59ac7e600160006101000a81548173ffffffffffffffffffffffffffffffffffffffff021916908373ffffffffffffffffffffffffffffffffffffffff160217905550612cca6040805190810160405280600981526020017f6574685f6b6f76616e0000000000000000000000000000000000000000000000815250612f25565b60019050612f22565b6000612cf273146500cfd35b22e4a392fe0adc06de1a1368ed48612a73565b1115612d945773146500cfd35b22e4a392fe0adc06de1a1368ed48600160006101000a81548173ffffffffffffffffffffffffffffffffffffffff021916908373ffffffffffffffffffffffffffffffffffffffff160217905550612d8b6040805190810160405280600b81526020017f6574685f72696e6b656279000000000000000000000000000000000000000000815250612f25565b60019050612f22565b6000612db3736f485c8bf6fc43ea212e93bbf8ce046c7f1cb475612a73565b1115612e1757736f485c8bf6fc43ea212e93bbf8ce046c7f1cb475600160006101000a81548173ffffffffffffffffffffffffffffffffffffffff021916908373ffffffffffffffffffffffffffffffffffffffff16021790555060019050612f22565b6000612e367320e12a1f859b3feae5fb2a0a32c18f5a65555bbf612a73565b1115612e9a577320e12a1f859b3feae5fb2a0a32c18f5a65555bbf600160006101000a81548173ffffffffffffffffffffffffffffffffffffffff021916908373ffffffffffffffffffffffffffffffffffffffff16021790555060019050612f22565b6000612eb97351efaf4c8b3c9afbd5ab9f4bbc82784ab6ef8faa612a73565b1115612f1d577351efaf4c8b3c9afbd5ab9f4bbc82784ab6ef8faa600160006101000a81548173ffffffffffffffffffffffffffffffffffffffff021916908373ffffffffffffffffffffffffffffffffffffffff16021790555060019050612f22565b600090505b90565b8060029080519060200190612f3b929190612f3f565b5050565b828054600181600116156101000203166002900490600052602060002090601f016020900481019282601f10612f8057805160ff1916838001178555612fae565b82800160010185558215612fae579182015b82811115612fad578251825591602001919060010190612f92565b5b509050612fbb9190612fbf565b5090565b612fe191905b80821115612fdd576000816000905550600101612fc5565b5090565b9056fea165627a7a723058206adc8b56b1236aaf7b5ed6b019eebc7fcd9418b119ec30daaca644b764ab00340029",
  "source": "pragma solidity ^0.5.0;\r\n\r\nimport \"./Bet.sol\";\r\n\r\ncontract PuzzleBet is Bet {\r\n    address public selfAddress;\r\n    string apiCallAddress;\r\n\r\n    constructor (address _owner, uint _amount, uint _maxParticipators, bool _open, bool _friendsOnly, uint _betLength ) public {\r\n        OAR = OraclizeAddrResolverI(0x6f485C8BF6fc43eA212E93BBF8ce046C7f1cb475);\r\n        require(_betLength > 0 && _maxParticipators <= 64 && _maxParticipators > 0,\"Failed to supply correct input\");\r\n        //emit Log(\"Test incoming\");\r\n        bet.creationTime = now;\r\n        bet.owner = _owner;\r\n        bet.betAmount = _amount;\r\n        bet.maxParticipators = _maxParticipators;\r\n        bet.open = _open;\r\n        bet.friendsOnly = _friendsOnly;\r\n        bet.finished = false;\r\n        bet.betLength = (1 minutes * _betLength);\r\n        selfAddress = address(this);\r\n        bytes memory linkLeft = bytes(\"https://ethereumbetting.azurewebsites.net/api/SlidingPuzzleBet/GetWinners?addressPuzzleBet=\");\r\n        bytes memory linkRight = bytes(addressToString(address(this)));\r\n\r\n        apiCallAddress = strConcat(string(linkLeft), string(linkRight));\r\n        emit Log(\"Test incoming\");\r\n        apiCall();\r\n        //getWinnersApi();\r\n        //emit TestEvent(addrToString(address(this)));\r\n    }\r\n\r\n    function addressToString(address _addr) public pure returns(string memory) {\r\n        bytes32 value = bytes32(uint256(_addr));\r\n        bytes memory alphabet = \"0123456789abcdef\";\r\n        bytes memory str = new bytes(42);\r\n        str[0] = '0';\r\n        str[1] = 'x';\r\n        for (uint i = 0; i < 20; i++) {\r\n            str[2+i*2] = alphabet[uint8(value[i + 12] >> 4)];\r\n            str[3+i*2] = alphabet[uint8(value[i + 12] & 0x0f)];\r\n        }\r\n        return string(str);\r\n    }\r\n    // function getWinnersApi() public payable {\r\n    //     oraclize_setCustomGasPrice(4000000000);\r\n    //     emit Log(\"called api\");        \r\n    //     emit Log(apiCallAddress);\r\n    //     oraclize_query(\"URL\", apiCallAddress,5000000);\r\n    //     emit Log(\"finish calling api\");\r\n    // }\r\n    //Always open ethereum bridge after starting ganache, and after restarting ganache, redeploy eth bridge\r\n    function apiCall() public {\r\n        //emit Log(\"called api\");\r\n        // //oraclize_query(bet.betLength,\"URL\", apiCallAddress,5000000);\r\n        //oraclize_query(0,\"WolframAlpha\", \"random number between 0 and 100\");\r\n        oraclize_query(bet.betLength,\"URL\", apiCallAddress);\r\n    }\r\n\r\n    function __callback(bytes32 myid, string memory result) public {\r\n        if (msg.sender != oraclize_cbAddress()) revert();\r\n        emit TestEvent(result);\r\n        bytes memory byteString = bytes(result);\r\n        //Loop through result string\r\n        //Set winners and split by \"@\"\r\n        uint splitAmount = 0;\r\n        bytes memory winnerAddress = new bytes(42);\r\n        bool skipCharacter = false;\r\n        emit Length(byteString.length);\r\n        for(uint i = 0; i < byteString.length; i++){\r\n            if(skipCharacter == true){\r\n                skipCharacter = false;\r\n            }\r\n            else if(splitAmount < 42){\r\n                winnerAddress[splitAmount] = byteString[i];\r\n                splitAmount++;\r\n            }\r\n            if(splitAmount == 42){\r\n                AddWinners(parseAddr(string(winnerAddress)));\r\n                skipCharacter = true;\r\n                winnerAddress = new bytes(42);\r\n                splitAmount = 0;\r\n            }\r\n        }\r\n        divideWinnings();\r\n        // emit Winners(bet.winners);\r\n    }\r\n\r\n    event TestEvent(string val);\r\n    event Winner(string val);\r\n    event Length(uint length);\r\n    event Address(address betAdr);\r\n    event Winners(address[] winners);\r\n    event Log(string s);\r\n\r\n    function TestAddWinners(string memory winners) public {\r\n        //emit TestEvent(winners);\r\n        bytes memory byteString = bytes(winners);\r\n        //Loop through result string\r\n        //Set winners and split by \"@\"\r\n        uint splitAmount = 0;\r\n        bytes memory winnerAddress = new bytes(42);\r\n        bool skipCharacter = false;\r\n        //emit Length(byteString.length);\r\n        for(uint i = 0; i < byteString.length; i++){\r\n            if(skipCharacter == true){\r\n                skipCharacter = false;\r\n            }\r\n            else if(splitAmount < 42){\r\n                winnerAddress[splitAmount] = byteString[i];\r\n                splitAmount++;\r\n            }\r\n            if(splitAmount == 42){\r\n                address winnerad = parseAddr(string(winnerAddress));\r\n                if(userAlreadyJoined(winnerad) && !userAlreadyWinner(winnerad)){\r\n                    AddWinners(winnerad);\r\n                }\r\n                skipCharacter = true;\r\n                winnerAddress = new bytes(42);\r\n                splitAmount = 0;\r\n            }\r\n        }\r\n        divideWinnings();\r\n        emit Winners(bet.winners);\r\n    }\r\n\r\n    function AddWinners(address winner) private {\r\n        bet.winners.push(winner);\r\n    }\r\n\r\n    function divideWinnings() private {\r\n        //There are winners\r\n        uint amountWinning = 0;\r\n        if(bet.winners.length > 0) {\r\n            uint256 balance = getStoredBalance();\r\n            while(balance % bet.winners.length != 0) {\r\n                balance = balance - 1;\r\n            }\r\n            amountWinning = balance / bet.winners.length;\r\n        }\r\n        for(uint i = 0;i<bet.winners.length;i++) {\r\n            pendingWithdrawals[bet.winners[i]] = amountWinning;\r\n        }\r\n    }\r\n}",
  "sourcePath": "C:\\Users\\Maru\\Documents\\School\\Project D\\Application\\Ethereum-Betting\\Ethereum Betting\\clientapp\\contracts\\PuzzleBet.sol",
  "compiler": {
    "name": "solc",
    "version": "0.5.0+commit.1d4f565a.Emscripten.clang"
  },
  "schemaVersion": "3.0.2",
  "updatedAt": "2019-06-16T21:11:23.344Z",
  "devdoc": {
    "methods": {}
  },
  "userdoc": {
    "methods": {}
  }
}